:020000040800F2
:100000000000012039380008450F0008470F00089C
:10001000490F00084B0F00084D0F000800000000BA
:100020000000000000000000000000004F0F00086A
:10003000510F000800000000530F0008550F000882
:10004000893800088938000889380008893800088C
:10005000893800088938000889380008893800087C
:10006000893800085D0F00088938000889380008C1
:10007000893800088938000889380008893800085C
:10008000893800088938000889380008893800084C
:10009000893800088938000889380008893800083C
:1000A000893800088938000889380008893800082C
:1000B000893800088938000889380008893800081C
:1000C000893800088938000889380008893800080C
:1000D00089380008893800088938000889380008FC
:1000E00089380008893800088938000889380008EC
:1000F00089380008893800088938000889380008DC
:10010000893800080000000000000000893800085D
:1001100089380008893800088938000889380008BB
:1001200089380008893800088938000889380008AB
:10013000893800088938000800000000000000002D
:100140008938000889380008893800080000000054
:10015000000000000000000000000000000000009F
:10016000893800088938000889380008893800086B
:10017000893800088938000889380008893800085B
:1001800089380008893800080000000000000000DD
:0401900089380008A2
:1001980010B5054C237833B9044B13B10448AFF3B9
:1001A80000800123237010BD7800002000000000AB
:1001B8001858000808B5034B1BB103490348AFF3AF
:1001C800008008BD000000007C00002018580008CE
:1001D800034613F8012B002AFBD1181A013870477F
:1001E80081F0004102E000BF83F0004330B54FEAE0
:1001F80041044FEA430594EA050F08BF90EA020F4D
:100208001FBF54EA000C55EA020C7FEA645C7FEADF
:10021800655C00F0E2804FEA5454D4EB5555B8BF02
:100228006D420CDD2C4480EA020281EA030382EA73
:10023800000083EA010180EA020281EA0303362D05
:1002480088BF30BD11F0004F4FEA01314FF4801CD8
:100258004CEA113102D0404261EB410113F0004FEA
:100268004FEA03334CEA133302D0524263EB4303A1
:1002780094EA050F00F0A780A4F10104D5F1200E3F
:100288000DDB02FA0EFC22FA05F2801841F100019A
:1002980003FA0EF2801843FA05F359410EE0A5F16E
:1002A80020050EF1200E012A03FA0EFC28BF4CF09F
:1002B800020C43FA05F3C01851EBE37101F0004555
:1002C80007D54FF0000EDCF1000C7EEB00006EEB62
:1002D8000101B1F5801F1BD3B1F5001F0CD34908EC
:1002E8005FEA30004FEA3C0C04F101044FEA445243
:1002F80012F5800F80F09A80BCF1004F08BF5FEACA
:10030800500C50F1000041EB045141EA050130BDA9
:100318005FEA4C0C404141EB0101013C28BFB1F5BB
:10032800801FE9D291F0000F04BF01460020B1FA06
:1003380081F308BF2033A3F10B03B3F120020CDAD9
:100348000C3208DD02F1140CC2F10C0201FA0CF0B7
:1003580021FA02F10CE002F11402D8BFC2F1200C1C
:1003680001FA02F120FA0CFCDCBF41EA0C019040D2
:10037800E41AA2BF01EB0451294330BD6FEA04041B
:100388001F3C1CDA0C340EDC04F11404C4F1200206
:1003980020FA04F001FA02F340EA030021FA04F318
:1003A80045EA030130BDC4F10C04C4F1200220FA6F
:1003B80002F001FA04F340EA0300294630BD21FAAD
:1003C80004F0294630BD94F0000F83F4801306BF73
:1003D80081F480110134013D4EE77FEA645C18BF67
:1003E8007FEA655C29D094EA050F08BF90EA020FFE
:1003F80005D054EA000C04BF1946104630BD91EAF6
:10040800030F1EBF0021002030BD5FEA545C05D1F8
:100418004000494128BF41F0004130BD14F5800437
:100428003CBF01F5801130BD01F0004545F0FE41AB
:1004380041F470014FF0000030BD7FEA645C1ABFE0
:10044800194610467FEA655C1CBF0B46024650EA17
:10045800013406BF52EA033591EA030F41F4002143
:1004680030BD00BF90F0000F04BF0021704730B5C9
:100478004FF4806404F132044FF000054FF000019E
:1004880050E700BF90F0000F04BF0021704730B55F
:100498004FF4806404F1320410F0004548BF404234
:1004A8004FF000013EE700BF42004FEAE2014FEA89
:1004B80031014FEA02701FBF12F07F4393F07F4F64
:1004C80081F06051704732F07F4208BF704793F067
:1004D8007F4F04BF41F40021704730B54FF460747A
:1004E80001F0004521F000411CE700BF50EA01027D
:1004F80008BF704730B54FF000050AE050EA010226
:1005080008BF704730B511F0004502D5404261EB95
:1005180041014FF4806404F132045FEA915C3FF4D6
:10052800D8AE4FF003025FEADC0C18BF03325FEA73
:10053800DC0C18BF033202EBDC02C2F1200300FA24
:1005480003FC20FA02F001FA03FE40EA0E0021FA49
:1005580002F11444BDE600BF70B54FF0FF0C4CF437
:10056800E06C1CEA11541DBF1CEA135594EA0C0FE9
:1005780095EA0C0F00F0DEF82C4481EA030621EA24
:100588004C5123EA4C5350EA013518BF52EA03355F
:1005980041F4801143F4801338D0A0FB02CE4FF011
:1005A8000005E1FB02E506F00042E0FB03E54FF041
:1005B8000006E1FB03569CF0000F18BF4EF0010E39
:1005C800A4F1FF04B6F5007F64F5407404D25FEA35
:1005D8004E0E6D4146EB060642EAC62141EA5551E8
:1005E8004FEAC52040EA5E504FEACE2EB4F1FD0C2A
:1005F80088BFBCF5E06F1ED8BEF1004F08BF5FEAA8
:10060800500E50F1000041EB045170BD06F0004659
:1006180046EA010140EA020081EA0301B4EB5C0406
:10062800C2BFD4EB0C0541EA045170BD41F48011FE
:100638004FF0000E013C00F3AB8014F1360FDEBF23
:10064800002001F0004170BDC4F10004203C35DAFF
:100658000C341BDC04F11404C4F1200500FA05F382
:1006680020FA04F001FA05F240EA020001F0004223
:1006780021F0004110EBD37021FA04F642EB060199
:100688005EEA430E08BF20EAD37070BDC4F10C04C3
:10069800C4F1200500FA04F320FA05F001FA04F287
:1006A80040EA020001F0004110EBD37041F1000173
:1006B8005EEA430E08BF20EAD37070BDC4F120057E
:1006C80000FA05F24EEA020E20FA04F301FA05F2E6
:1006D80043EA020321FA04F001F0004121FA04F28E
:1006E80020EA020000EBD3705EEA430E08BF20EA5E
:1006F800D37070BD94F0000F0FD101F00046400098
:1007080041EB010111F4801F08BF013CF7D041EA19
:10071800060195F0000F18BF704703F0004652001D
:1007280043EB030313F4801F08BF013DF7D043EAEE
:100738000603704794EA0C0F0CEA135518BF95EAA4
:100748000C0F0CD050EA410618BF52EA4306D1D12B
:1007580081EA030101F000414FF0000070BD50EA4A
:10076800410606BF1046194652EA430619D094EAD4
:100778000C0F02D150EA013613D195EA0C0F05D1BE
:1007880052EA03361CBF104619460AD181EA030112
:1007980001F0004141F0FE4141F470014FF00000CA
:1007A80070BD41F0FE4141F4780170BD70B54FF065
:1007B800FF0C4CF4E06C1CEA11541DBF1CEA1355E5
:1007C80094EA0C0F95EA0C0F00F0A7F8A4EB0504C7
:1007D80081EA030E52EA03354FEA013100F08880BE
:1007E8004FEA03334FF0805545EA131343EA126387
:1007F8004FEA022245EA111545EA10654FEA00263C
:100808000EF000419D4208BF964244F1FD0404F5F4
:10081800407402D25B084FEA3202B61A65EB030550
:100828005B084FEA32024FF480104FF4002CB6EB0D
:10083800020E75EB030E22BFB61A754640EA0C008D
:100848005B084FEA3202B6EB020E75EB030E22BFCD
:10085800B61A754640EA5C005B084FEA3202B6EB0E
:10086800020E75EB030E22BFB61A754640EA9C00CD
:100878005B084FEA3202B6EB020E75EB030E22BF9D
:10088800B61A754640EADC0055EA060E18D04FEA5B
:10089800051545EA16754FEA06164FEAC30343EAFB
:1008A80052734FEAC2025FEA1C1CC0D111F4801FC8
:1008B8000BD141EA00014FF000004FF0004CB6E7C1
:1008C80011F4801F04BF01430020B4F1FD0C88BF60
:1008D800BCF5E06F3FF6AFAEB5EB030C04BFB6EB6B
:1008E800020C5FEA500C50F1000041EB045170BD5E
:1008F8000EF0004E4EEA113114EB5C04C2BFD4EB8B
:100908000C0541EA045170BD41F480114FF0000E0E
:10091800013C90E645EA060E8DE60CEA135594EA8A
:100928000C0F08BF95EA0C0F3FF43BAF94EA0C0F8D
:100938000AD150EA01347FF434AF95EA0C0F7FF402
:1009480025AF104619462CE795EA0C0F06D152EA56
:1009580003353FF4FDAE1046194622E750EA41063A
:1009680018BF52EA43067FF4C5AE50EA41047FF44B
:100978000DAF52EA43057FF4EBAE12E74FF0FF3CB0
:1009880006E000BF4FF0010C02E000BF4FF0010C81
:100998004DF804CD4FEA410C7FEA6C5C4FEA430CFA
:1009A80018BF7FEA6C5C1BD001B050EA410C0CBF49
:1009B80052EA430C91EA030F02BF90EA020F0020AB
:1009C800704710F1000F91EA030F58BF994208BF12
:1009D80090422CBFD8176FEAE37040F001007047CF
:1009E8004FEA410C7FEA6C5C02D150EA013C07D126
:1009F8004FEA430C7FEA6C5CD6D152EA033CD3D071
:100A08005DF8040B704700BF8446104662468C466A
:100A18001946634600E000BF01B5FFF7B7FF00289D
:100A280048BF10F1000F01BD4DF808EDFFF7F4FFC6
:100A38000CBF012000205DF808FB00BF4DF808ED51
:100A4800FFF7EAFF34BF012000205DF808FB00BF74
:100A58004DF808EDFFF7E0FF94BF012000205DF896
:100A680008FB00BF4DF808EDFFF7CEFF94BF01204B
:100A780000205DF808FB00BF4DF808EDFFF7C4FF44
:100A880034BF012000205DF808FB00BF4FEA410C8D
:100A98007FEA6C5C02D150EA013C0AD14FEA430C70
:100AA8007FEA6C5C02D152EA033C02D14FF00000AD
:100AB80070474FF0010070474FEA410212F50012EB
:100AC80015D211D56FF47873B3EB625212D94FEA8D
:100AD800C12343F0004343EA505311F0004F23FA77
:100AE80002F018BF404270474FF00000704750EACC
:100AF800013005D111F0004008BF6FF00040704789
:100B08004FF00000704700BF4FEA4102B2F1E043E6
:100B180024BFB3F5001CDCF1FE5C0DD901F0004CDC
:100B28004FEAC0024CEA5070B2F1004F40EB83002C
:100B380008BF20F00100704711F0804F21D113F158
:100B48003872BCBF01F00040704741F480114FEA91
:100B58005252C2F11802C2F1200C10FA0CF320FA1A
:100B680002F018BF40F001004FEAC1234FEAD32337
:100B780003FA0CFC40EA0C0023FA02F34FEA4303A1
:100B8800CCE77FEA625307D150EA01331EBF4FF02A
:100B9800FE4040F44000704701F0004040F0FE4045
:100BA80040F40000704700BF00B587B000230493ED
:100BB800059303F1804303F504335A6942F4802214
:100BC8005A615B6903F480230093009B0823019317
:100BD800054B02930223039301A9044801F0E6FCA4
:100BE80007B05DF804FB00BF0000111000040048C6
:100BF800FEE7000000B587B018484FF0A043036037
:100C08004FF44033436000238360C36003610422D0
:100C18004261037601224276C26180F82030426246
:100C28008262C36280F83030436300F08FFA80B983
:100C38000123009301930623029300230393049353
:100C480005936946054800F04BFD20B907B05DF8EB
:100C580004FBFFF7CDFFFFF7CBFF00BF1801002013
:100C680010B584B0134C144B236001F089FC134B6E
:100C7800A3FB0023DB0C013BE36040F24A436360C3
:100C880000232361A3606361A361204600F07EFF17
:100C980058B92023019300230293039301A905481F
:100CA80000F08EFF18B904B010BDFFF7A1FFFFF7E1
:100CB8009FFF00BF6C030020002C0140518C207A5C
:100CC80008B51148114B0360114B43600023836042
:100CD8000122C260036143618361C361036201F061
:100CE80031FF50B90021084802F066F938B90021EF
:100CF800054802F08FF920B908BDFFF779FFFFF723
:100D080077FFFFF775FF00BF9C00002000540040EC
:100D18000E09002000B591B0002301930223079328
:100D28004FF40043089301230A934FF46013099387
:100D38001023059301A800F0F1FF80B90F230B934E
:100D480002210C9100230D934FF480620E920F93B1
:100D58000BA801F03BFB20B911B05DF804FBFFF7CD
:100D680047FFFFF745FF000030B52DED028B89B036
:100D780000F09CFF4FF4807303934FF400730293C9
:100D880080230193402300932023102202214FF057
:100D9800904002F0ADFB644802F0DEFB0121002028
:100DA80002F064FAFFF7B6FFFFF724FFFFF758FFDA
:100DB800FFF7FAFEFFF784FF02F0E4FB5B4800F060
:100DC80065FE08B1FFF714FF594800F01BFB00222D
:100DD8001146092001F0E8FC092001F019FD544CE6
:100DE8004FF0FF31204600F0CDFB204600F074FCA8
:100DF80080B2FFF747FB3EA3D3E90023FFF7ACFB24
:100E080004460D4602460B463BA1D1E90001FFF717
:100E1800EBF93BA3D3E90023FFF79EFB22462B46C1
:100E2800FFF7C4FC41EC180B41EC100B02F050FD2D
:100E380051EC100BFFF768FEFFF736FB32A3D3E93E
:100E48000023FFF789FB32A3D3E90023FFF7CEF98C
:100E580004460D46B0EE480AF0EE680A02F038FD86
:100E680051EC100BFFF750FEF0EE080A00EE100AE6
:100E780002F048FE10EE100AFFF716FB26A3D3E98E
:100E88000023FFF769FB02460B4620462946FFF779
:100E9800ABF9FFF739FEFFF707FB02460B460020C8
:100EA8002449FFF783FC1EA3D3E90023FFF79CF92D
:100EB800FFF72AFE00EE100A05A802F00DFC01213A
:100EC800002002F0D3F905A802F046FB1A4B93ED77
:100ED800000A05A802F000FC0121082002F0C6F96A
:100EE80005A802F039FB4FF47A7000F003FF76E7AB
:100EF800B4D934E70C684A3F6666666666660A4097
:100F0800000000000088C340A3F77006A497303F94
:100F1800D662D52C67BF503FD508E63DA029D03D05
:100F28006666666666127140305800086C030020D9
:100F3800180100200000F03F980000207047FEE7ED
:100F4800FEE7FEE7FEE770477047704708B500F018
:100F5800BFFE08BD08B5082001F006FC08BD08283A
:100F680000D0704708B502F07FFB08BD82B00A4B7D
:100F78009A6942F001029A619A6902F001020092AC
:100F8800009ADA6942F08052DA61DB6903F0805333
:100F98000193019B02B070470010024000B589B070
:100FA8000023039304930593069307930368B3F10F
:100FB800A04F02D009B05DF804FB03F1704303F5BC
:100FC80004335A6942F080525A615A6902F08052D9
:100FD8000192019A5A6942F400325A615B6903F43A
:100FE80000330293029B01230393032304930023FA
:100FF800059303A94FF0904001F0D8FADAE7000012
:1010080010B588B0114C636943F480236361636948
:1010180003F480230193019B4FF44073039312233D
:10102800049301230593032306930423079303A939
:10103800074801F0BBFAE36943F40013E361E3698D
:1010480003F400130293029B08B010BD0010024085
:101058000004004838B50268936803F00303012BC5
:1010680001D0002038BD0446136813F0010F2ED0BC
:10107800936803F00D03012B09D0036C43F01003B0
:101088000364436C43F0010343640120EAE7936877
:1010980043F002039360036803221A6000F024FE01
:1010A800054623689B6813F0010F0ED000F01CFE64
:1010B800401B0228F5D9236C43F010032364636CAA
:1010C80043F0010363640120CCE70020CAE7002055
:1010D800C8E7000038B504460268936803F00303C4
:1010E800012B0DD09168184B19420FD0236C43F097
:1010F80010032364636C43F001036364012038BD6B
:10110800136813F0010FEDD00020F8E7936843F05F
:101118000103936000F0E8FD054623681B6813F09F
:10112800010F0ED100F0E0FD431B022BF5D9236C13
:1011380043F010032364636C43F0010363640120EC
:10114800DDE70020DBE700BF3F00008030B597B047
:1011580000230193002800F043810446036C13F038
:10116800100F52D1036CABB1002023689A6812F0BB
:10117800805F03D09B6813F0005F47D0236C23F097
:10118800120343F010032364636C43F001036364A8
:1011980001203BE04364C364836480F83C30FFF77C
:1011A800FDFE23689B6813F0805F01D00020DCE718
:1011B8002046FFF74FFF236C13F0100FD5D10028FE
:1011C800D3D1236C23F4885323F0020343F00203A2
:1011D80023642268936823F04053936022689368DD
:1011E80043F0805393607F4B1B687F4AA2FB032325
:1011F8009B0C03EB83035B00019302E0019B013B23
:101208000193019B002BF9D1AFE70020236C13F069
:10121800100F40F0DC80002840F0D98023689968DE
:1012280011F0040140F0D380226C22F4817242F064
:1012380002022264B3F1A04F14D06C4A93420FD03B
:101248006B4DB3F1A04F0FD0684A934269D0694AF9
:1012580093426AD0684A93426BD00022029205E01A
:10126800664DEEE7654DECE7604A02929A6802F037
:101278000302012A61D0029B23B19A6802F003029B
:10128800012A5FD0AB6823F4403362681343AB6034
:10129800627E5303656B012D01D04FF480510B43DF
:1012A800E1680B43A1680B4394F8201001294ED044
:1012B800A26A012A0CD021684E4DA9425AD005F5E0
:1012C8008075A94256D022F48052E16A0A4313433A
:1012D8002268916811F00C0F0CD1D16821F480417B
:1012E80021F00201D160217E94F83020520042EAB8
:1012F800813213432168CD68414A2A401343CB60A9
:101308002369012B5AD02268136B23F00F03136350
:1013180000236364236C23F0030343F00103236475
:101328005CE04FF0A0420292A0E702F580720292C0
:101338009CE7A2F58072029298E71B6813F0010FF0
:10134800A6D198E71B6813F0010FA1D19AE732B92B
:10135800626A013A43EA424343F48033A8E7226CC5
:1013680022F0220242F020022264626C42F0010262
:1013780062649DE7B2F5307F11D0B2F5807F11D05D
:10138800B2F5E07F11D0B2F58A5F11D0B2F5845F73
:1013980011D0B2F5865F98D14FF4C07295E74FF43B
:1013A800E07292E74FF430728FE74FF480728CE767
:1013B8004FF4707289E74FF4A07286E721680B6BCF
:1013C80023F00F03E269013A13430B63A0E7236C90
:1013D80023F0120343F010032364012017B030BD3B
:1013E8000120FBE70C00002083DE1B4300010050B6
:1013F8000007005000040050000500500003005092
:1014080007C0F0FF03689B6813F0040F40F0AD803D
:1014180010B5044690F83C30012B00F0A880012359
:1014280080F83C30FFF756FE002840F09A80236C85
:1014380023F4706323F0010343F480732364236867
:10144800B3F1A04F33D04B4A934230D04A4A926806
:1014580012F01F0F30D1226C22F480122264DA6855
:1014680012F0007F05D0226C22F4405242F48052E0
:101478002264226C12F4805F3ED0626C22F0060275
:101488006264002284F83C201C221A602368B3F1AD
:10149800A04F34D0374A934231D0374A926812F07D
:1014A8001F0F31D19A6842F004029A605CE0334A17
:1014B800926812F01F0FCED0B3F1A04FCBD0304AB4
:1014C8009342C8D0226C42F480122264294A934283
:1014D8000CD02B4AD268C2F34062002AC9D0226CD1
:1014E80022F4405242F480522264C2E74FF0A042F4
:1014F800D268C2F34062F0E700226264C1E71F4A83
:10150800926812F01F0FCDD0B3F1A04F09D0194A3D
:10151800934206D0184A926802F01F02052A06D1A3
:10152800C0E7164A926802F01F02052ABAD0B3F142
:10153800A04F09D00F4A934206D00F4A926802F092
:101548001F02092A06D1ADE70C4A926802F01F0271
:10155800092AA7D0B3F1A04FA4D0094A934203D1D6
:10156800A0E7002384F83C3010BD02207047022019
:10157800FAE700BF000100500007005000030050C8
:10158800000400502DE9F04104460D464669082E36
:1015980010D00368B3F1A04F36D04B4A934230D0F5
:1015A8004A4A916811F01F0F39D1DB6813F0010F17
:1015B8002CD10C262368B3F1A04F3FD0424A934266
:1015C8003CD0424A926812F01F0F3CD1D3F80C80ED
:1015D80000F08AFB074623681A68324243D1B5F106
:1015E800FF3FF8D025B100F07FFBC01BA842F2D91D
:1015F800236C43F004032364002384F83C30032065
:101608005EE002F50072CCE7314ACAE7236C43F08A
:1016180020032364002384F83C30012050E09368C1
:1016280013F4404F01D10C26C4E7236C43F0200388
:101638002364002384F83C30012041E0244A926866
:1016480012F01F0FC2D0B3F1A04FBFD0214A93426E
:10165800BCD01D4A934203D01E4BD3F80C80B7E789
:101668004FF0A043F9E7226C42F400722264DA6872
:1016780012F4406F1FD118F4005F1CD11A6812F0E1
:10168800080F18D09A6812F0040F0CD1226C22F4BB
:1016980080722264226C12F4805F0CD1226C42F0BA
:1016A8000102226407E0226C42F020022264626C8C
:1016B80042F00102626418F4804F03D11E600020DA
:1016C800BDE8F0810020FBE7000100500007005052
:1016D80000030050000400500368186C70470000B5
:1016E80030B496B00022019290F83C20012A00F014
:1016F800B8810346012280F83C200068826812F015
:10170800040F40F0A3814A68042A32D8046B02EB24
:10171800420252001F25954024EA05040D6805FA87
:1017280002F2224302631868826812F00C0F68D133
:101738000A68092A4ED9846902EB42021E3A072533
:10174800954024EA05048D6805FA02F22243826175
:1017580048691C68E268C2F3C102520000FA02F24A
:1017680008690138032800F29580DFE800F040722C
:101778007D88092A0ED8446B02EB420252001E3AB9
:101788001F25954024EA05040D6805FA02F2224354
:101798004263C8E70E2A0ED8846B02EB420252005D
:1017A8003C3A1F25954024EA05040D6805FA02F223
:1017B80022438263B7E7C46B02EB420252005A3AF3
:1017C8001F25954024EA05040D6805FA02F2224314
:1017D800C263A8E7446902EB42020725954024EA60
:1017E80005048D6805FA02F222434261B0E7206ED3
:1017F8009D4D0540086842EA8062154345F0004562
:1018080025661868826802F00302012A72D0CA6845
:10181800012A75D0D0F8B0200D680124AC4022EA26
:101828000402C0F8B0201A68B2F1A04F00F093800B
:101838008E48824200F08D808D4C0968102900F096
:101848008C80112900F09D80122900F09F800020D3
:1018580001E1606E844D0540086842EA80621543E4
:1018680045F000456566CCE7A06E7F4D05400868E9
:1018780042EA8062154345F00045A566C1E7E56E7A
:10188800794828400D6842EA8562024342F00042E6
:10189800E266B6E7226E02F0F8420868B2EB806FA3
:1018A80003D1226E22F0004222661A68506E00F0C0
:1018B800F8400C68B0EB846F03D1506E20F0004004
:1018C80050661A68906E00F0F8400C68B0EB846FB0
:1018D80003D1906E20F0004090661A68D06E00F038
:1018E800F8400C68B0EB846F8BD1D06E20F00040CC
:1018F800D06686E7026812F0010F88D00020AAE0BF
:10190800D0F8B0200D680124AC402243C0F8B020C4
:101918000A68092A0ED91D68A86902EB42021B3A17
:101928000724944020EA04008C6804FA02F2024377
:10193800AA6178E71D686869013202EB4202072450
:10194800944020EA04008C6804FA02F202436A61B7
:1019580069E7484C71E7474C6FE7A06810F4000F3F
:101968007FF46FAFB2F1A04F16D04048824229D021
:10197800414882422AD0414882422BD0002002901E
:101988000CE0A06810F0807FECD05DE7A06810F450
:10199800800FE7D000205EE034480290906800F0A5
:1019A800030001281AD0029820B1856805F00305C4
:1019B800012D1DD0102920D0112938D012293FD04F
:1019C800002048E04FF0A0400290E7E700F5807063
:1019D8000290E3E7A0F580700290DFE7106810F04E
:1019E800010FE0D01A6C42F020021A64012032E0A4
:1019F800006810F0010FF5D1DCE7B2F1A04FDBD1A0
:101A0800A26842F40002A2601D4A12681D49A1FBA7
:101A18000212920C02EB82025200019202E0019A39
:101A2800013A0192019A002AF9D1002013E0B2F19B
:101A3800A04FC3D1A26842F08072A26000200AE0E1
:101A4800A26842F48002A260002004E01A6C42F00E
:101A580020021A640120002283F83C2016B030BC12
:101A680070470220FAE700BF00F0FF830001005032
:101A7800000700500003005000040050000500500B
:101A88000C00002083DE1B4370470000022380F80F
:101A98003D3002689168084B0B40062B06D0B3F521
:101AA800803F03D0136843F001031360012380F8DB
:101AB8003D300020704700BF070001000368324A2C
:101AC800904212D0B0F1804F0FD0A2F594329042DC
:101AD8000BD002F58062904207D002F59632904210
:101AE80003D002F5E052904203D123F070034A6814
:101AF8001343254A90421ED0B0F1804F1BD0A2F567
:101B08009432904217D002F58062904213D002F5C9
:101B1800963290420FD002F5406290420BD002F507
:101B28008062904207D002F58062904203D002F5AD
:101B38000062904203D123F44073CA68134323F030
:101B480080034A69134303608B68C3620B6883622E
:101B58000D4B984213D003F5006398420FD003F55C
:101B6800406398420BD003F58063984207D003F591
:101B78008063984203D003F50063984201D10B6952
:101B88000363012343617047002C0140B0B110B5D5
:101B9800044690F83D3063B1022384F83D30214675
:101BA80051F8040BFFF78AFF012384F83D30002029
:101BB80010BD80F83C30FFF767FFEDE70120704764
:101BC80090F83C30012B46D030B4012380F83C30EB
:101BD800022380F83D300268536895681F4CA24282
:101BE80007D004F50064A24203D004F5E054A242F1
:101BF80003D123F470034C68234323F070030C686B
:101C0800234353600368154A934216D0B3F1804FBB
:101C180013D0A2F5943293420FD002F5806293421A
:101C28000BD002F59632934207D002F540629342F8
:101C380003D002F58052934204D125F080058A68CA
:101C480015439D60012380F83D30002380F83C3027
:101C5800184630BC70470220704700BF002C014076
:101C680010B504460E4B18784FF47A73B3FBF0F3B3
:101C78000C4A1068B0FBF3F000F0D8FD68B90F2CDF
:101C880001D901200AE0002221464FF0FF3000F080
:101C98008BFD054B1C60002000E0012010BD00BF3B
:101CA800000000200C0000200400002008B5074AAE
:101CB800136843F010031360032000F063FD0F2046
:101CC800FFF7CEFFFFF752F9002008BD00200240C1
:101CD800034A1168034B1B780B441360704700BF1D
:101CE800AC03002000000020014B1868704700BFBB
:101CF800AC03002038B50446FFF7F6FF0546B4F1FB
:101D0800FF3F02D0044B1B781C44FFF7EDFF401B3C
:101D1800A042FAD338BD00BF00000020002800F020
:101D2800038370B582B00446036813F0010F3DD0F9
:101D3800C74B5B6803F00C03042B20D0C44B5B68D3
:101D480003F00C03082B13D06368B3F5803F6AD007
:101D5800002B40F08D8003F1804303F504331A68AB
:101D680022F480321A601A6822F480221A605FE036
:101D7800B74B5B6803F4C033B3F5803FE4D14FF44D
:101D8800003393FAA3F3B24B19684FF4003393FA74
:101D9800A3F3B3FA83F303F01F03012202FA03F358
:101DA8000B4203D06368002B00F0C082236813F055
:101DB800020F00F0C080A64B5B6813F00C0F00F018
:101DC8009780A34B5B6803F00C03082B00F0888016
:101DD800E368002B00F0ED80012292FAA2F3B3FA37
:101DE80083F303F1845303F584139B001A60FFF710
:101DF8007BFF0546022393FAA3F3954B1968022348
:101E080093FAA3F3B3FA83F303F01F03012202FA50
:101E180003F30B4240F0BE80FFF766FF401B022829
:101E2800E8D903208BE28A4A136843F480331360AD
:101E38006368002B36D0FFF757FF05464FF4003391
:101E480093FAA3F3824B19684FF4003393FAA3F380
:101E5800B3FA83F303F01F03012202FA03F30B42E0
:101E6800A4D1FFF741FF401B6428E7D9032066E2AD
:101E7800B3F5A02F09D0764B1A6822F480321A6085
:101E88001A6822F480221A60D2E703F18043A3F58E
:101E98003C331A6842F480221A601A6842F480328D
:101EA8001A60C5E7FFF720FF05464FF4003393FAA1
:101EB800A3F3674B19684FF4003393FAA3F3B3FA0B
:101EC80083F303F01F03012202FA03F30B423FF4EA
:101ED8006DAFFFF709FF401B6428E6D903202EE207
:101EE8005B4B5B6803F4C033B3F5004F7FF470AF0E
:101EF800022393FAA3F3564B1968022393FAA3F328
:101F0800B3FA83F303F01F03012202FA03F30B422F
:101F180003D0E368934240F00B824D48036823F0F6
:101F2800F8032169F82292FAA2F2B2FA82F201FACF
:101F380002F213430360236813F0080F00F08C804B
:101F48006369002B5CD0012191FAA1F2B2FA82F206
:101F5800404B13449B001960FFF7C6FE0546022359
:101F680093FAA3F293FAA3F293FAA3F2384A516AC6
:101F780093FAA3F3B3FA83F303F01F03012202FADF
:101F880003F30B4268D1FFF7AFFE401B0228E6D9E6
:101F98000320D4E12E48036823F0F8032169F822CE
:101FA80092FAA2F2B2FA82F201FA02F21343036041
:101FB800C1E7012393FAA3F3B3FA83F303F184533C
:101FC80003F584139B0000221A60FFF78DFE054677
:101FD800022393FAA3F31E4B1968022393FAA3F37F
:101FE800B3FA83F303F01F03012202FA03F30B424F
:101FF800A1D0FFF779FE401B0228E9D903209EE112
:10200800012292FAA2F2B2FA82F2124B13449B0016
:1020180000221A60FFF768FE0546022393FAA3F22E
:1020280093FAA3F293FAA3F2094A516A93FAA3F333
:10203800B3FA83F303F01F03012202FA03F30B42FE
:102048000AD0FFF751FE401B0228E6D9032076E1AB
:102058000010024020819010236813F0040F00F054
:10206800A980BB4BDB6913F0805F20D1B84BDA69DC
:1020780042F08052DA61DB6903F080530193019BDF
:102088000125B44B1B6813F4807F12D0A368012B81
:1020980023D073BB03F1804303F504331A6A22F09B
:1020A80001021A621A6A22F004021A621AE0002572
:1020B800E7E7A84A136843F480731360FFF714FE38
:1020C8000646A44B1B6813F4807FDFD1FFF70CFE94
:1020D800801B6428F5D9032031E19D4A136A43F037
:1020E80001031362A368002B3CD0FFF7FDFD0646F1
:1020F8002EE0052B09D0964B1A6A22F001021A62CB
:102108001A6A22F004021A62ECE7914B1A6A42F04A
:1021180004021A621A6A42F001021A62E2E7022312
:1021280093FAA3F38A4B596A022393FAA3F3B3FAF7
:1021380083F303F01F03012202FA03F3194238D193
:10214800FFF7D2FD801B41F28833984200F2F280FB
:10215800022393FAA3F293FAA3F3002BDFD07C4B6C
:10216800196AE1E7FFF7C0FD064618E0022393FA73
:10217800A3F3774B596A022393FAA3F3B3FA83F3D1
:1021880003F01F03012202FA03F3194211D0FFF7EB
:10219800ABFD801B41F28833984200F2CD800223C8
:1021A80093FAA3F293FAA3F3002BDFD0684B196AD2
:1021B800E1E7B5BBA369002B00F0C080644A526810
:1021C80002F00C02082A00F09980022B2FD04FF061
:1021D800807393FAA3F3B3FA83F303F1845303F5FB
:1021E80084139B0000221A60FFF77EFD04464FF01F
:1021F800007393FAA3F3564B19684FF0007393FAE0
:10220800A3F3B3FA83F303F01F03012202FA03F3E3
:10221800194271D0FFF768FD001B0228E7D9032097
:102228008DE04B4AD36923F08053D361C2E74FF066
:10223800807393FAA3F3B3FA83F303F1845303F59A
:1022480084139B0000221A60FFF74EFD05464FF0ED
:10225800007393FAA3F33E4B19684FF0007393FA97
:10226800A3F3B3FA83F303F01F03012202FA03F383
:10227800194206D0FFF738FD401B0228E7D9032092
:102288005DE0334AD36A23F00F03616A0B43D362DC
:10229800536823F47613216AE06901430B435360C2
:1022A8004FF0807393FAA3F3B3FA83F303F18453E3
:1022B80003F584139B0001221A60FFF715FD0446FD
:1022C8004FF0007393FAA3F3214B19684FF0007392
:1022D80093FAA3F3B3FA83F303F01F03012202FA7C
:1022E80003F3194206D1FFF7FFFC001B0228E7D9C8
:1022F800032024E0002022E0002020E0012B20D051
:10230800134A5368D06A03F4C031E26991421AD182
:1023180003F47013226A934217D100F00F00636A26
:10232800984219D100200AE001207047012006E0F8
:10233800012004E0032002E0032000E0002002B0B6
:1023480070BD0120FBE70120F9E70120F7E700BF96
:1023580000100240007000400120F0E7174B5B6856
:1023680003F00C02082A01D01548704703F47011D5
:102378004FF4701292FAA2F2B2FA82F221FA02F241
:102388001049885C0D4AD26A02F00F020F2191FAB7
:10239800A1F1B1FA81F1CA400B498A5C13F4803F7C
:1023A80005D0074BB3FBF2F300FB03F07047044B77
:1023B800B3FBF2F300FB03F0704700BF00100240CC
:1023C80000127A003858000848580008002800F021
:1023D800BE8070B50D460446614B1B6803F00703C9
:1023E8008B420BD25E4A136823F007030B4313603A
:1023F800136803F007038B4240F0AB80236813F0A7
:10240800020F06D0574A536823F0F003A1680B4324
:102418005360236813F0010F5AD06368012B2DD045
:10242800022B40D0022292FAA2F24E4A10680222EF
:1024380092FAA2F2B2FA82F202F01F02012101FA24
:1024480002F2104200F0878046494A6822F00302EF
:1024580013434B60FFF748FC0646424B5B6803F0AA
:102468000C036268B3EB820F32D0FFF73DFC801B90
:1024780041F288339842F0D9032067E04FF40032E4
:1024880092FAA2F2374A10684FF4003292FAA2F296
:10249800B2FA82F202F01F02012101FA02F20242AC
:1024A800D2D1012052E04FF0007292FAA2F22D4AE6
:1024B80010684FF0007292FAA2F2B2FA82F202F0B9
:1024C8001F02012101FA02F21042BDD101203DE0B4
:1024D800234B1B6803F00703AB420AD9204A136851
:1024E80023F007032B431360136803F00703AB4281
:1024F80033D1236813F0040F06D01A4A536823F423
:10250800E063E1680B435360236813F0080F07D0BA
:10251800144A536823F46053216943EAC1035360A2
:10252800FFF71CFF0F4B5B6803F0F003F02292FAF1
:10253800A2F2B2FA82F2D3400B4AD35CD8400B4BDA
:1025480018600B4B1868FFF78BFB002070BD01204B
:1025580070470120FAE70120F8E70120F6E700BFFD
:102568000020024000100240585800080C000020CB
:1025780004000020014B1868704700BF0C000020C1
:1025880008B5FFF7F7FF074B5B6803F4E0634FF408
:10259800E06292FAA2F2B2FA82F2D340024AD35C23
:1025A800D84008BD0010024068580008F0B583B054
:1025B800002336E0062400E00024B4403C43023502
:1025C800624E46F82540624C2568D44325EA020647
:1025D8004F6817F4803F01D042EA05065C4D2E6033
:1025E8006D6804EA05064F6817F4003F01D042EA17
:1025F8000506574D6E60AD6804EA05064F6817F486
:10260800801F01D042EA0506514DAE60ED682C40AE
:102618004E6816F4001F01D042EA05044C4AD46003
:1026280001330A6832FA03F400F08D8001249C40DB
:102638002240F5D04D686E1E012E03D9112D01D010
:10264800122D12D186685F000325BD4026EA0506D3
:10265800CD68BD4035438560466826EA04064D6866
:10266800C5F300149C4034434460C7685E000325EA
:10267800B540EC4327EA05078D68B5403D43C56082
:102688004D68022D01D0122D13D1DF08083750F8FC
:1026980027E003F007054FEA850C0F2505FA0CF52E
:1026A8002EEA050E0D6905FA0CF545EA0E0540F807
:1026B8002750056825404C6804F00304B4402C43B7
:1026C80004604C6814F0805FAAD0224CA56945F0DC
:1026D8000105A561A46904F001040194019C9D0809
:1026E800AE1C1A4C54F8267003F00304A6000F24FD
:1026F800B44027EA0407B0F1904F3FF45DAF164CA1
:10270800A04216D004F58064A04214D004F5806479
:10271800A04212D004F58064A04210D004F5806471
:10272800A0420ED004F58064A0423FF443AF0724D2
:1027380043E7012441E702243FE703243DE704245B
:102748003BE7052439E703B0F0BD00BF00000140B6
:102758000004014000100240000400480AB18161F1
:10276800704781627047000008B5054B5B690342FA
:1027780000D108BD024B5861FEF7F1FBF9E700BF35
:1027880000040140074AD36823F4E0631B041B0CD0
:10279800000200F4E060034343F0BF6343F40033F6
:1027A800D360704700ED00E030B4174BDB68C3F32B
:1027B8000223C3F10704042C28BF04241D1D062D81
:1027C80018D9033B4FF0FF3505FA04F421EA040158
:1027D800994005FA03F322EA0303194300280BDBA7
:1027E8000901C9B200F1604000F5614080F80013AA
:1027F80030BC70470023E5E700F00F000901C9B2BB
:10280800024B1954F4E700BF00ED00E014ED00E0BE
:10281800002807DB00F01F02400901239340024A09
:1028280042F82030704700BF00E100E00138B0F105
:10283800807F0AD2064B5860064AF02182F823109E
:102848000020986007221A6070470120704700BF77
:1028580010E000E000ED00E07047704770477047F7
:1028680070477047704770477047704703689A69A8
:1028780012F0020F01D000229A6203689A6912F0DE
:10288800010F03D19A6942F001029A61704770B44E
:10289800039E05686868740D04F4806444F07F74CE
:1028A80044F4583444F47F7444F0030420EA0400E8
:1028B800C1F3090141EA0241194331430143696007
:1028C80070BC7047F8B505460E46174603689B6905
:1028D80013F0100F01D10020F8BD2B689C6914F08B
:1028E800200F17D1B6F1FF3FF7D0FFF7FDF9C01B56
:1028F800B04201D8002EF0D16B6C43F020036B641A
:10290800202385F84130002385F8423085F840308F
:102918000120E1E71022DA612B682024DC612846D7
:10292800FFF7A4FF2A68536823F0FF7323F48B335F
:1029380023F4FF7323F0010353606B6C43F004032B
:102948006B6485F84140002385F8423085F84030B3
:102958000120C1E770B504460D46164623689B69F9
:1029680013F0020F1DD1324629462046FFF7AAFF71
:10297800C8B9B5F1FF3FF1D0FFF7B6F9801BA842FF
:1029880001D8002DEAD1636C43F02003636420234F
:1029980084F84130002384F8423084F84030012024
:1029A80000E0002070BD0120FCE72DE9F04106465B
:1029B800884617461D463468A46938EA04030CBFE4
:1029C80001240024BC4218D1B5F1FF3FF3D0FFF732
:1029D8008BF9069BC01AA84201D8002DEBD1736C65
:1029E80043F020037364202386F84130002386F8DF
:1029F800423086F84030012000E00020BDE8F08138
:102A08002DE9F04182B0044690461D46089E099F74
:102A1800194B00934FF08073EAB2FFF738FF3A463C
:102A280031462046FFF796FFF8B9012D0ED12368ED
:102A38005FFA88F29A620097334600228021204686
:102A4800FFF7B3FFA8B902B0BDE8F08123684FEAE9
:102A580018229A623A4631462046FFF77BFF30B982
:102A680023685FFA88F29A62E5E70120EBE7012024
:102A7800E9E70120E7E700BF002000802DE9F041E9
:102A880082B0044690461D46089E099F184B009345
:102A98000023EAB2FFF7FBFE3A4631462046FFF72D
:102AA80059FFF8B9012D0ED123685FFA88F29A62AE
:102AB80000973346002240212046FFF776FFA8B949
:102AC80002B0BDE8F08123684FEA18229A623A46BC
:102AD80031462046FFF73EFF30B923685FFA88F297
:102AE8009A62E5E70120EBE70120E9E70120E7E743
:102AF8000020008070B505460C4616462B689B6979
:102B080013F0200F1AD1324621462846FFF7DAFE85
:102B1800B0B9FFF7E9F8801BA04201D8002CEDD12D
:102B28006B6C43F020036B64202385F8413000234D
:102B380085F8423085F84030012070BD0020FCE760
:102B48000120FAE7002872D010B5044690F8413009
:102B5800DBB980F84030374BC364374B0365374BDC
:102B68004365374B8365374BC365374B0366374B34
:102B78004366374B8366374BC366374B0367436FF0
:102B8800002B46D0636F20469847242384F84130B1
:102B98002268136823F0010313606368226823F036
:102BA800706313612268936823F400439360E368B9
:102BB800012B31D0A368226843F404439360E3688F
:102BC800022B2FD02268536843F0007343F400436C
:102BD80053602268D36823F40043D3602369626991
:102BE8001343A169226843EA0123D360E369216A98
:102BF80022680B4313602268136843F001031360D3
:102C080000206064202384F84130206384F8420067
:102C180010BD124B4367B5E7A368226843F400432D
:102C28009360CCE723684FF400625A60CAE701203A
:102C3800704700BF6128000863280008652800085D
:102C4800672800086B2800086D2800086F2800080E
:102C5800712800087328000869280008091000086E
:102C68002DE9F04F83B00E46BDF834A00E9D90F8C4
:102C78004110C9B2202940F0BB80044690469946CD
:102C88000C9BCBB1BAF1000F16D090F84030012B55
:102C980000F0B2804FF0010B80F840B0FFF724F845
:102CA8000746009019235A464FF400412046FFF783
:102CB8007CFE30B101209CE04FF400736364012076
:102CC80097E0212384F84130402384F842300023E0
:102CD80063640C9A6262A4F82AA063630197009562
:102CE8004B46424631462046FFF78AFE70B9638D4F
:102CF8009BB2FF2B0FD9FF222285002300934FF0B0
:102D0800807331462046FFF7C2FD21E0002384F896
:102D1800403058466DE0628D92B2228500230093C0
:102D28004FF00073D2B231462046FFF7B0FD0FE0F6
:102D3800628D92B22285002300934FF00073D2B2C5
:102D480031462046FFF7A3FD638D9BB2002B33D09D
:102D58003A4629462046FFF7FDFD00284ED1626A13
:102D6800236812789A62636A01336362638D9BB247
:102D7800013B9BB26385238D013B9BB22385628D0A
:102D880092B2002AE0D0002BDED100972B46002219
:102D980080212046FFF709FE90BB638D9BB2FF2B75
:102DA800C6D9FF222285002300934FF08073314655
:102DB8002046FFF76CFDC7E73A4629462046FFF74D
:102DC80099FEF8B923682022DA6121684B6823F05C
:102DD800FF7323F48B3323F4FF7323F001034B6059
:102DE80084F84120002384F8423084F8403000E021
:102DF800022003B0BDE8F08F0220FAE70120F8E7CF
:102E08000120F6E70120F4E72DE9F04F83B00E46E4
:102E1800BDF834A00E9D90F84110C9B2202940F0A9
:102E2800BC800446904699460C9BCBB1BAF1000F82
:102E380016D090F84030012B00F0B3804FF0010B12
:102E480080F840B0FEF750FF0746009019235A4615
:102E58004FF400412046FFF7A8FD30B101209DE066
:102E68004FF400736364012098E0222384F8413012
:102E7800402384F84230002363640C9A6262A4F809
:102E88002AA06363019700954B4642463146204687
:102E9800FFF7F4FD70B9638D9BB2FF2B0FD9FF22AA
:102EA8002285444B00934FF0807331462046FFF74C
:102EB800EEFC21E0002384F8403058466EE0628D35
:102EC80092B222853B4B00934FF00073D2B2314649
:102ED8002046FFF7DCFC0FE0628D92B222850023CA
:102EE80000934FF00073D2B231462046FFF7CFFC73
:102EF800638D9BB2002B34D000972B46002204210F
:102F08002046FFF752FD00284DD123685A6A636AAC
:102F18001A70636A01336362228D013A92B2228584
:102F2800638D9BB2013B9BB26385638D9BB2002B83
:102F3800DED0002ADCD100972B4680212046FFF7FF
:102F480034FD90BB638D9BB2FF2BC5D9FF22228530
:102F5800002300934FF0807331462046FFF797FC1B
:102F6800C6E73A4629462046FFF7C4FDF8B9236864
:102F78002022DA6121684B6823F0FF7323F48B3336
:102F880023F4FF7323F001034B6084F841200023EE
:102F980084F8423084F8403000E0022003B0BDE8F5
:102FA800F08F0220FAE70120F8E70120F6E7012078
:102FB800F4E700BF0024008090F84130DBB2202BFA
:102FC80024D190F84030012B22D0012380F84030E2
:102FD800242380F841300268136823F0010313604A
:102FE8000268136823F48053136002681368194356
:102FF80011600268136843F001031360202380F80E
:103008004130002380F8403018467047022070474E
:103018000220704790F84130DBB2202B22D190F883
:103028004030012B20D0012380F84030242380F841
:1030380041300268136823F00103136002681368C3
:1030480023F4706343EA012111600268136843F0B6
:1030580001031360202380F84130002380F84030BA
:1030680018467047022070470220704786B02D4BE3
:103078001B68B3F1904F19D02B4A934225D02B4AA5
:1030880093422DD02A4A934235D02A4A93423DD0C2
:10309800294A934217D1294B5A6942F480025A614E
:1030A8005B6903F480030593059B0CE003F1784307
:1030B80003F504335A6942F400325A615B6903F438
:1030C80000330093009B06B070471C4B5A6942F4CA
:1030D80080225A615B6903F480230193019BF2E724
:1030E800164B5A6942F400225A615B6903F40023C3
:1030F8000293029BE7E7114B5A6942F480125A6126
:103108005B6903F480130393039BDCE70B4B5A6959
:1031180042F400125A615B6903F400130493049BA0
:10312800D1E700BFB80300200004004800080048A9
:10313800000C00480010004800140048001002402D
:1031480010B4044C20706170A270E3705DF8044BF9
:10315800704700BFB003002038B50D4D0D4C00225C
:1031680029882068FFF7FAFA0120FEF7C3FD01223B
:1031780029882068FFF7F2FA0120FEF7BBFD00223C
:1031880029882068FFF7EAFA0120FEF7B3FD38BD69
:10319800D2030020B803002038B5054600240BE010
:1031A80045FA04F202F00102064B33F81410064BFC
:1031B8001868FFF7D3FA0134032CF1DDFFF7CCFFD1
:1031C80038BD00BFC0030020B803002038B505464D
:1031D80000240BE045FA04F202F00102064B33F832
:1031E8001410064B1868FFF7B9FA0134072CF1DD03
:1031F800FFF7B2FF38BD00BFC0030020B8030020AE
:1032080010B504460A46104B1988104B1868FFF78A
:10321800A5FA0F4B1988FF2908D10E4B1B7813F01C
:10322800100F09D02046FFF7D1FF10BD0022074B31
:103238001868FFF793FAF0E72009FFF7ADFF20467B
:10324800FFF7AAFFF1E700BFD4030020B80300206E
:10325800B4030020D103002008B500210120FFF7A6
:10326800CFFF0220FEF746FD08BD000008B5032980
:1032780000D90321084B1B788B4201D8591EC9B2CB
:10328800064B5B5C184440B260F07F000021C0B27E
:10329800FFF7B6FF08BD00BFBD030020B003002044
:1032A80008B5054B187840F004001870002140F06C
:1032B8000800FFF7A5FF08BDBC030020F0B587B0E4
:1032C80002460C46012904D95F490B7843F00803EC
:1032D8000B705E4B1C7002F1400340210020FFF789
:1032E8002FFF5B4B1B780BB1012C65D0FFF7BEFE9F
:1032F8000323049301230293564B1B78002B61D0C0
:1033080055490D884C888888CB88544A1288544976
:1033180009880A43534909880A432A432243024336
:1033280013439BB20193504C01A92068FFF73EF963
:103338003220FEF7DFFC0022484B19882068FFF78F
:103348000DFA0022474B19882068FFF707FA444B0B
:103358001988FF295AD13C4B187810F0100F5AD110
:103368000320FFF719FF0520FEF7C4FC0320FFF731
:1033780013FF0520FEF7BEFC0320FFF70DFF012019
:10338800FEF7B8FC0220FFF707FF2F4B1878002143
:1033980040F02000FFF734FF344B04221A70FFF787
:1033A8007FFFFFF759FF324B02221A7000210620D7
:1033B800FFF726FF07B0F0BD234A137843F0040354
:1033C800137093E7244BB3F800C05F889E88DD88AC
:1033D8001C8958899989DB89204A1288DFF880E09E
:1033E800BEF800E042EA0E02DFF878E0BEF800E03E
:1033F80042EA0E024CEA02023A4332432A4322438B
:1034080002430A4313439BB201938CE700222068CE
:10341800FFF7A4F99FE7002140F02000FFF7F0FE36
:103428000520FEF767FC084C2078002140F02000BA
:10343800FFF7E6FE0120FEF75DFC2078002140F052
:103448002000FFF7DDFEA0E7D1030020BD03002028
:103458009400002008000020C0030020D4030020AE
:10346800B4030020D2030020B8030020BC030020CE
:10347800D003002010B5184C2280184A1380BDF8DC
:103488000820174B1A80174B1960174BBDF80C20F2
:103498001A80BDF810205A80BDF814209A80BDF813
:1034A8001820DA80BDF81C201A81BDF820205A8126
:1034B800BDF824209A81BDF82820DA8138B10B4B59
:1034C80000221A7002211020FFF7F8FE10BD074BEA
:1034D80010221A70F6E700BFD4030020B4030020BE
:1034E800D2030020B8030020C0030020D10300202D
:1034F800F0B58BB00446BDF84050BDF84460BDF847
:103508004870BDF84CC01348007890B1002008906E
:10351800079006900590CDF810C003970296019584
:10352800009313460A4621460120FFF7A3FF0BB07C
:10353800F0BD00200890079006900590CDF810C0C7
:10354800039702960195009313460A462146FFF712
:1035580091FFECE70800002070B580B10446FCF745
:1035680037FE002506E0012114F8010BFFF748FE9D
:1035780001353046461E0028F5D1284670BD002585
:10358800FBE7000000B587B04FF47A73029301237C
:1035980001930DF1170200927522D0213148FFF7EF
:1035A80033FC9DF81730682B02D007B05DF804FB98
:1035B80080238DF816304FF47A7302930123019318
:1035C8000DF1160200926B22D0212648FFF748FB26
:1035D80000B1FEE707238DF816304FF47A73029393
:1035E800012301930DF1160200921922D0211D48E2
:1035F800FFF736FB00B1FEE700238DF816304FF4D5
:103608007A730293012301930DF1160200921C2292
:10361800D0211448FFF724FB00B1FEE701238DF801
:1036280016304FF47A72029201930DF1160200924D
:103638003822D0210B48FFF713FB00B1FEE7002327
:103648008DF816304FF47A730293012301930DF12C
:10365800160200923722D0210248FFF701FB00280A
:10366800A3D0FEE79C00002030B587B0164C4FF47D
:103678007A7502950223019305AB009301233B223F
:10368800D0212046FFF7C0FB9DF814309DF81500A7
:1036980040EA032000B20D4B1880FCF7F3FE00222D
:1036A8000B4BFCF759FFFDF72FFA0A4B18600295F0
:1036B800012301930DF1130200923A22D0212046F2
:1036C800FFF7A2FB07B030BD9C0000206803002074
:1036D8000000103F980000202DE9F8430546B5EE9C
:1036E800C00AF1EE10FA2ED4DFED457A60EE277AA3
:1036F800FDEEE77A17EE903A424A82FB0312DF1793
:10370800C7EB6217642202FB1737FDEEC07A17EE8B
:10371800906A00242046FCF7B5FE41EC110B9FEDA2
:10372800360B00F01DF959EC108B3046FCF7AAFE59
:1037380042464B46FDF73AF80022334BFDF792F923
:10374800E0B10134E6E7DFED317A60EE277AFDEE8D
:10375800E77A17EE903A2B4A82FB0312DF17C7EB82
:103768006217642202FB1737B1EE400AFDEEC07AF9
:1037780017EE906A2D2305F8013BCAE7013C1CE0CF
:103788002046FCF77FFE41EC110B9FED1B0B00F070
:10379800E7F851EC100BFDF78FF996FBF0F01C4A97
:1037A80082FB0032C317C3EBA20303EB8303A0EB36
:1037B8004303303305F8013B013C002CE0DA2E23AB
:1037C8002B70134B83FB0721FA17C2EBA10283FB73
:1037D8000231D317C3EBA10303EB8303A2EB43032B
:1037E80030336B7002EB8202A7EB42023032AA70D0
:1037F8000023EB70BDE8F8830000000000002440BF
:103808000000C8421F85EB510000F03F0000C8C20D
:1038180067666666054BD3F8882042F47002C3F8E1
:1038280088204FF000629A60704700BF00ED00E00A
:10383800DFF834D0002103E00C4B5B5843500431CF
:103848000B480C4B42189A42F6D30B4A02E000236D
:1038580042F8043B094B9A42F9D3FFF7DBFF00F02B
:1038680011F8FDF781FAFEE70000012098580008DA
:10387800000000207800002078000020D8030020F5
:10388800FEE7000070B50D4D0D4C641BA41000261A
:10389800A64209D10B4D0C4C01F0BAFF641BA410D1
:1038A8000026A64205D170BD55F8043B984701365D
:1038B800EEE755F8043B98470136F2E790580008C0
:1038C800905800089058000894580008000000001C
:1038D80038B52DED028B55EC104B00F0B5F91E4BA9
:1038E800B0EE408AF0EE608A93F9003001331AD0C6
:1038F80022462B4620462946FDF7C8F898B90022EB
:10390800002320462946FDF7B7F860B92046294626
:1039180000220023FDF788F860B101F073FF9FEDE6
:103928000C8B22230360B0EE480AF0EE680ABDEC67
:10393800028B38BD01F066FFBDEC028B21230360CA
:10394800BDE83840054801F043BD00BFAFF3008033
:10395800000000000000F0FF74000020705800080C
:10396800F8B52DED028B57EC106B55EC114B00F0B0
:1039780077FB634BB0EE408AF0EE608A93F9003033
:1039880001332AD022462B4620462946FDF77EF8E9
:1039980018BB32463B4630463946FDF777F80028D3
:1039A80044D10022002330463946FDF73DF8D8B10E
:1039B8000022002320462946FDF736F800283DD18D
:1039C80045EC104B01F0F8FC38B12046294600229E
:1039D8000023FDF733F800285CD1B0EE480AF0EE7A
:1039E800680ABDEC028BF8BDB0EE480AF0EE680A32
:1039F80001F0E2FC58B351EC180B00220023FDF74C
:103A080013F80028E9D047EC106B01F0D5FC00282A
:103A1800E3D045EC104B01F0CFFC0028DDD001F0DD
:103A2800F1FE22239FED2E8B0360D6E72046294620
:103A380000220023FCF7F8FF0028CED09FED2A8B48
:103A4800B0EE480AF0EE680ABDEC028BF8BD47EC10
:103A5800106B01F0B1FC0028CDD045EC104B01F003
:103A6800ABFC0028C7D053EC182B18EE100A1946E7
:103A7800FDF70CF820BB01F0C5FE034622221A60B0
:103A88003046394600220023FCF7D8FF48B99FED9D
:103A9800188BA2E701F0B6FE21239FED178B036078
:103AA8009BE745EC104B01F09BFC224651EC100BB8
:103AB8002B46FCF7B9FF0028E9D19FED0F8B8CE767
:103AC80001F0A0FE002200232121016010461946C2
:103AD800FCF76CFE41EC180B7FE700BFAFF30080EA
:103AE8000000000000000000000000000000F03F9F
:103AF800000000000000F07F000000000000F0FF60
:103B08007400002008B52DED048BF0EE408AB0EE6D
:103B1800608A01F043F9474B93F900300133B0EE66
:103B2800409A1FD0B4EE488AF1EE10FA1AD6F4EE95
:103B3800688AF1EE10FA59D6DFED3F9AF4EE698AF9
:103B4800F1EE10FA13D1B4EE698AF1EE10FA29D029
:103B5800B0EE480A01F072FD20B1B4EEE98AF1EE48
:103B680010FA4DD4B0EE490ABDEC048B08BD01F043
:103B780065FDF0B1B5EE409AF1EE10FAF2D1B0EE73
:103B8800680A01F05BFD0028ECD0B0EE480A01F0AD
:103B980055FD0028E6D001F035FE22239FED269A38
:103BA8000360DFE7B7EE009AB0EE490ABDEC048B7C
:103BB80008BDB0EE680A01F041FD0028DAD0B0EE89
:103BC800480A01F03BFD0028D4D0B4EE499AF1EE42
:103BD80010FA28D601F016FEF5EEC08A2223F1EE7F
:103BE80010FA036013D49FED159ABBE7B5EE408A2F
:103BF800F1EE10FAF7EE007A08BFB0EE679AB1E777
:103C080001F000FE21239FED0E9A0360AAE7B0EEB3
:103C1800480A01F027FDB4EE480AF1EE10FAE2D0A6
:103C28009FED079A9EE701F0EDFD212389EEA99A01
:103C3800036097E774000020000000000000807F08
:103C4800000080FF000000002DE9F04F51EC100B40
:103C58002DED028BB1F5801F83B00B4657DA21F0AA
:103C68000042024300F0FE800029C0F23E81E44B8E
:103C78000022FCF771FCE34A0B4693426FF03507CC
:103C88004ADCC3F3130505F5152606F6647606F433
:103C9800801686F07F5282F4401242EA05011C1514
:103CA8000022D94BFCF7A0FAAB1CA4F2FF34C3F3F3
:103CB80013033C44022B04EB165482468B464FF008
:103CC800000234DC0023FCF7AFFE002800F0D780A8
:103CD800002C00F066812046FCF7D4FBB2A3D3E9A0
:103CE800002306460F46FCF737FCB1A3D3E90023AF
:103CF80004460D4630463946FCF72EFC02460B4674
:103D080020462946FCF772FA41EC100B0AE0BD4A3E
:103D180093424FF00007B4DD02460B46FCF766FA03
:103D280041EC100B03B0BDEC028BBDE8F08F4FF0F7
:103D38008043FCF75BFA02460B4650465946FCF7AF
:103D480035FD02460B46204643EC182BFCF79AFB40
:103D580053EC182B06460F4651EC180BCDE90067BB
:103D6800FCF7FAFB02460B4680468946FCF7F4FB53
:103D780091A3D3E9002306460F46FCF7EDFB90A379
:103D8800D3E90023FCF732FA32463B46FCF7E4FB62
:103D98008DA3D3E90023FCF729FA32463B46FCF70A
:103DA800DBFB8BA3D3E90023FCF720FA42464B4602
:103DB800FCF7D2FB88A3D3E9002380468946304626
:103DC8003946FCF7C9FB86A3D3E90023FCF70EFAB2
:103DD80032463B46FCF7C0FB83A3D3E90023FCF73C
:103DE80005FA32463B46FCF7B7FB0B460246494606
:103DF8004046FCF7FBF9A5F5C223C5F5D725A3F284
:103E08007A4351351D43002D06460F465FDD7F4B33
:103E1800002250465946FCF79FFB52465B46FCF78A
:103E28009BFB80468946002C6AD142464B46304669
:103E38003946FCF7DBF953EC182BFCF78DFB0246EF
:103E48000B4640464946FCF7CFF902460B4650461A
:103E58005946FCF7C9F941EC100B03B0BDEC028BD5
:103E6800BDE8F08F0022002369490020FCF79EFC82
:103E780041EC100B03B0BDEC028BBDE8F08F5CA3E6
:103E8800D3E9002350465946FCF766FB02460B4629
:103E980000205E49FCF7A8F9524606460F465B46E5
:103EA80050465946FCF758FB02460B463046394601
:103EB800FCF752FB06460F46002C5AD102460B4629
:103EC80050465946FCF790F941EC100B2AE7002CB4
:103ED80040F0A08002460B4650465946FCF784F94C
:103EE80053EC182BFCF738FBAFE710EE102AFCF761
:103EF8007BF900220023FCF759FC41EC100B11E779
:103F080029A3D3E90023DDE90001FCF725FB42469C
:103F18004B4604460D4630463946FCF767F953ECE4
:103F2800182BFCF719FB22A3D3E9002306460F46FA
:103F3800DDE90001FCF710FB02460B463046394626
:103F4800FCF754F902460B4640464946FCF74CF943
:103F580052465B46FCF748F902460B46204629467E
:103F6800FCF742F941EC100B03B0BDEC028BBDE845
:103F7800F08F2046FCF786FA0BA3D3E9002380468E
:103F88008946FCF7E9FA0AA3D3E9002304460D465B
:103F980040464946FCF7E0FA02460B4630463946A9
:103FA800D4E79FED150BBDE60000E0FE422EE63F8C
:103FB800763C7935EF39EA3D44523EDF12F1C23F93
:103FC800DE03CB966446C73F599322942449D23FD7
:103FD800935555555555E53F9FC678D0099AC33F27
:103FE800AF788E1DC571CC3F04FA97999999D93F3E
:103FF800555555555555D53F0000000000000000A7
:1040080000005043FFFFEF7F0000F03F0000E03F5B
:10401800000050C3DDE900890DA3D3E90023404621
:104028004946FCF799FA32463B4604460D46504647
:104038005946FCF7D9F853EC182BFCF78DFA06A370
:10404800D3E9002306460F46A2E700BFAFF300807E
:104058000000E0FE422EE63F763C7935EF39EA3D36
:104068002DE9F04F57EC116B2DED0A8B27F0004A24
:104078005AEA060289B03DD055EC104B764925F036
:104088000048884510EE102AA9462CDC11EE103A9B
:10409800BB463AD08A4526DC6F498A4521D0B9F11A
:1040A800000F3DDB00210391002B55D16A4B9A4547
:1040B80000F0A880694B9A4500F0B680BBF1804FAC
:1040C80000F00185664B9B4546D1B9F1000F43DBF3
:1040D80045EC104B09B0BDEC0A8BBDE8F04F00F081
:1040E80099BD002BDBD008F1404808F5801858EA44
:1040F80002030DD19FED547B8DED007B9DED000BF0
:1041080009B0BDEC0A8BBDE8F08F0CB9C245C3DD20
:10411800544809B0BDEC0A8BBDE8F04F01F058B91E
:1041280051498A4500F38780A1F154718A450FDD12
:104138004FEA2A51A1F2FF31142940F3CE84C1F18C
:10414800340123FA01F000FA01F1994200F02085C8
:1041580000210391002BADD045EC104B069201F0E5
:1041680021F9069A8DED000B5ABBB8F1000F04D067
:104178003A4B29F040429A4223D1BBF1000F07DAAB
:10418800DDE9002335490020FCF710FBCDE90001EB
:10419800B9F1000FB2DA039B08F1404808F580181E
:1041A80058EA030340F0BE84DDE9002310461946AF
:1041B800FCF71AF802460B46FCF7F8FACDE90001BD
:1041C8009CE7039A4FEAD973013B0693134335D012
:1041D800264B9A454EDD03F104739A45244B40F370
:1041E800ED83984540F36B83BBF1000F40F36B837D
:1041F80017A3D3E9002310461946FCF7ADF9CDE91A
:1042080000017BE708F1404303F5801313433FF4B3
:1042180071AF174B984540F38883BBF1000FC0F28C
:104228005283CDE9006769E7BBF1000FC0F2418412
:10423800CDE9004562E70221039135E722462B4686
:10424800B4E700BFAFF30080000000000000F03FBB
:104258009C7500883CE4377E0000F07F0000F03F4A
:104268000000E03F70580008FFFF3F430000E041B6
:10427800FFFFEF3FE44B09EA0303002B40F01684ED
:10428800DDE90001E14B0022FCF766F9CDE9000108
:10429800DDF804806FF034004FEA2853DC49C8F396
:1042A8001302A3F2FF3342F07F5818188A4207908E
:1042B80048F4401840F3E983D64B9A4240F33E84D1
:1042C8009FEDBB7BB0EE47BAF0EE67BAB0EE47CAD7
:1042D800F0EE67CA9FEDB87B013054EC173B0790AE
:1042E800A8F580184FF00009DDE900AB44EC183B55
:1042F8001A46504623464146FBF776FF53EC182BE7
:1043080004460D4650464146FBF770FF02460B46F1
:104318000020C149FCF74AFA45EC1A4B41EC190B4D
:1043280051EC1A0B53EC192BFCF716F9C3464FEA5C
:10433800680848F0005808F5002303EB09050A4609
:1043480000230146CDE900120093DDE9008900242D
:10435800CDE904122B46224640464946FCF7FCF8B4
:1043680002460B4651EC1A0BFBF73EFF41EC170BCC
:1043780053EC182B2046294655EC174BFBF734FF16
:1043880002460B4650465946FBF72EFF42464B461F
:10439800FCF7E2F802460B4620462946FBF724FFC5
:1043A80053EC192BFCF7D8F8DDE904AB04460D46AD
:1043B80052465B4650465946FCF7CEF880A3D3E9EF
:1043C800002345EC1A4B04460D46FCF7C5F87EA3BE
:1043D800D3E90023FBF70AFF22462B46FCF7BCF87B
:1043E8007BA3D3E90023FBF701FF22462B46FCF70A
:1043F800B3F879A3D3E90023FBF7F8FE22462B464E
:10440800FCF7AAF876A3D3E90023FBF7EFFE2246D0
:104418002B46FCF7A1F874A3D3E90023FBF7E6FECB
:1044280022462B4604460D4610461946FCF794F8DA
:1044380002460B4620462946FCF78EF842460446BB
:104448000D464B4650465946CDE904ABFBF7CEFE28
:1044580053EC1A2BFCF780F822462B46FBF7C6FED6
:10446800424604460D464B4640464946FCF774F81A
:1044780045EC194B694B002282468B46FBF7B6FE8A
:1044880053EC192BFBF7B2FE009C0D4622462B4637
:1044980040464946FCF760F8604B80468946002252
:1044A80020462946FBF7A0FE52465B46FBF79CFEDA
:1044B80002460B4651EC190BFBF796FEDDE9042387
:1044C800FCF74AF849EC188B2246804689462B4669
:1044D80051EC1A0BFCF740F802460B464046494699
:1044E800FBF784FE82468B4652465B4651EC180B1E
:1044F800FBF77CFE009C3EA3D3E9002320460D4633
:10450800FCF72AF853EC182B8046894620462946A2
:10451800FBF76AFE02460B4650465946FBF764FE17
:1045280035A3D3E90023FCF717F849EC198B34A31A
:10453800D3E900238046894620462946FCF70CF833
:1045480002460B4640464946FBF750FE53EC1C2BEF
:10455800FBF74CFE824607988B46FBF793FF5246C3
:10456800804689465B4651EC190BFBF73FFE53EC3E
:104578001B2BFBF73BFE42464B46FBF737FE009CE6
:1045880042464B4620460D46FBF72EFE53EC1B2BAE
:10459800FBF72AFE53EC192BFBF726FE02460B46C7
:1045A80050465946FBF720FE82468B4638E000BF4E
:1045B8000000000000000000000000000000F03FC4
:1045C800EF4E454A287ECA3F65DBC9934A86CD3FF0
:1045D80001411DA96074D13F4D268F515555D53FD6
:1045E800FFAB6FDBB66DDB3F033333333333E33F6E
:1045F800000000E009C7EE3FFD033ADC09C7EE3FC3
:10460800F5015B14E02F3EBE0000F07F0000404340
:104618008E98030079B60B000000F03F00000840B8
:10462800039B069A013B134340F078819FEDC47BBE
:10463800B0EE479AF0EE679A0023CDE90067009341
:10464800DDE900893046424639464B46FBF7CCFD4A
:1046580022462B46FBF780FF32463B4606460F466E
:1046680050465946FBF778FF02460B463046394616
:10467800FBF7BCFD424682468B464B462046294600
:10468800FBF76AFF06460F463B46504659463246F8
:10469800FBF7ACFDC44B994204460D46884640F3EF
:1046A800178101F13F4303F5E003034340F02A82F9
:1046B800A5A3D3E9002350465946FBF797FD324698
:1046C80041EC180B3B4620462946FBF78DFD024678
:1046D8000B4651EC180BFCF7CFF9002840F012827A
:1046E800C8F30A534FF48012A3F2FE3342FA03F3DD
:1046F8004344AE49C3F30A52A2F2FF3241FA02FC24
:10470800C3F3130523EA0C01C2F1140445F4801520
:10471800B8F1000F0B4645FA04F103914FF0000081
:10472800B8BF49420246B8BF039130463946FBF745
:104738005BFD06460F463B46504659463246FBF758
:1047480055FD039B1B0500930D46002480A3D3E968
:10475800002320462946FBF7FFFE3246804689465D
:104768003B4620462946FBF73FFD02460B4650468E
:104778005946FBF739FD78A3D3E90023FBF7ECFE94
:1047880077A3D3E9002306460F4620462946FBF7C0
:10479800E3FE02460B4630463946FBF727FD064640
:1047A8000F4632463B4640464946FBF71FFD424608
:1047B8004B4604460D46FBF717FD02460B463046AE
:1047C8003946FBF711FD224682468B462B4620468A
:1047D8002946FBF7C1FE64A3D3E9002306460F462A
:1047E800FBF7BAFE62A3D3E90023FBF7FDFC3246D0
:1047F8003B46FBF7B1FE60A3D3E90023FBF7F6FCC9
:1048080032463B46FBF7A8FE5DA3D3E90023FBF73E
:10481800EBFC32463B46FBF79FFE5BA3D3E9002344
:10482800FBF7E4FC32463B46FBF796FE02460B4696
:1048380020462946FBF7D8FC06460F4632463B463B
:1048480020462946FBF788FE0022804689464FF01D
:10485800804330463946FBF7C7FC02460B464046C4
:104868004946FBF7A3FF524606460F465B462046DD
:104878002946FBF771FE52465B46FBF7B7FC02463A
:104888000B4630463946FBF7AFFC22462B46FBF772
:10489800ABFC02460B4600204549FBF7A5FC0B463E
:1048A80000991944B1F5801F0246C0F2698110468B
:1048B80053EC192BFBF750FECDE900011EE4BBF1C8
:1048C800000FFFF695AC9FED327B8DED007B15E474
:1048D800DFF8E4C021F00043634540F30B81354B1A
:1048E8000B4403430AD132463B46FBF77DFC524654
:1048F8005B46FCF7B7F800283FF4F2AE26A3D3E9ED
:10490800002351EC190BFBF727FE23A3D3E900235F
:10491800FBF722FECDE90001FFF7F0BB9FED207BFE
:10492800B0EE479AF0EE679A86E6BBF1000FCADA56
:1049380007F1004300960193FFF7E0BBAFF3008057
:10494800000000000000F0BFFE822B654715973C71
:1049580000000000432EE63FEF39FAFE422EE63F04
:10496800396CA80C615C20BED0A4BE726937663E63
:10497800F16BD2C541BDBB3E2CDE25AF6A56113F57
:1049880093BDBE166CC1663F3E5555555555C53F3E
:10499800000000000000000059F3F8C21F6EA501D6
:1049A800000000000000F03FFFFF8F40FFFF0F00F6
:1049B8000000F03F00346F3FFFCB90409845FFF672
:1049C8007EAF914B98453FF70FAC8F4B0022DDE946
:1049D8000001FBF709FC78A3D3E9002304460D4640
:1049E800FBF7BAFD76A3D3E9002382468B4620461F
:1049F8002946FBF7B1FD854B8046894600222046B3
:104A08002946FBF7A9FD02460B466FA1D1E9000133
:104A1800FBF7EAFB22462B46FBF79EFD02460B46B8
:104A280000207B49FBF7E0FB22462B4604460D4657
:104A380010461946FBF790FD02460B4620462946CC
:104A4800FBF78AFD62A3D3E90023FBF785FD024645
:104A58000B4640464946FBF7C7FB80468946504609
:104A6800594642464B46FBF7C1FB002452465B467B
:104A780020460D46FBF7B8FB02460B464046494622
:104A8800FBF7B2FB82468B46CAE59FED537BB0EE3F
:104A980047BAF0EE67BAB0EE47CAF0EE67CA9FEDC4
:104AA800507B4FF0000954EC173B1DE40020FFF742
:104AB800F3BB554922462B460020FBF777FECDE98C
:104AC8000001FFF71BBB22462B4620462946FBF771
:104AD80043FDCDE90001FFF711BB002B42D1C1F125
:104AE80014014AFA01F000FA01F151455AD0039332
:104AF800FFF7E0BA464A93425BDCDDE90012009119
:104B0800039122E638A3D3E9002351EC190BFBF7F4
:104B180023FD35A3D3E90023FBF71EFDCDE90001F2
:104B2800FFF7ECBA039B012B7FF4E8AADDE900212B
:104B380001F10043CDE90023FFF7E0BA9FED2C7B9C
:104B4800B0EE47BAF0EE67BA9FED2B7BB0EE47CADE
:104B5800F0EE67CA9FED2A7B4FF4802954EC173B8F
:104B6800FFF7C2BB45EC104B039200F01BFC039A05
:104B78008DED000B002A7FF461AB0392FFF7F5BAC5
:104B8800039843EC102B00F0BFFC51EC100B8FE6A0
:104B980000F00100C0F102010391002B3FF48AAA42
:104BA800FFF7DABA00F00100C0F102030393FFF740
:104BB80081BA1B1596E500BF000000604715F73F56
:104BC80044DF5DF80BAE543E555555555555D53F08
:104BD800FE822B654715F73F00000000000000002B
:104BE800000000000000F03F9C7500883CE4377E20
:104BF8000000004003B8E23F06D0CF43EBFD4C3E37
:104C0800000000000000F83F0000F03F0000D03F27
:104C18000000E03F2DE9F0415F4A57EC106BBA43C2
:104C280000F09880002F10EE104A3B464EDD3915F3
:104C38005BD0C3F31303CA0743F48013A1F2FF3E0A
:104C480003D45B0003EBD4736400E20F4FF0000C55
:104C580002EB43034FEA6E0E6400664616254FF4D6
:104C68000012B118994202DC5B1A8E1894445B005A
:104C7800013D03EBD4734FEA52024FEA4404F0D1EA
:104C88002F4620204FF0004209E03ED0E10F0138C6
:104C98004FEA520201EB43034FEA44043ED0B342C9
:104CA80002EB0501F1DD002901EB020509DBB04645
:104CB8009B1BA14288BF03F1FF33641A1744464681
:104CC800E4E7002DF3DB06F10108F1E727F00042E5
:104CD800324336D0002F4DD13946E20A15396405E2
:104CE8001346002AF9D0D70251D400205B00DE0217
:104CF800054600F10100F9D51A4623468440C0F163
:104D08002000C3401343491B93E7A142BED80029A2
:104D180001EB0205D5DB98460023CEE7234312D1E9
:104D280078084FEA6C0101F17F511CF0010F01F581
:104D3800001118BF40F0004001EB0E53024643EC4F
:104D4800102BBDE8F0817B1C16BF781C0CF1010C00
:104D58004008E6E710EE102A10EE100A3B463946E6
:104D6800FBF7FAFB32463B46FBF740FA41EC100BE7
:104D7800BDE8F08110EE102A30463946FBF734FAC8
:104D880002460B46FBF712FD41EC100BD9E7234610
:104D980020204FF0FF35B4E70000F07F2DE9F04701
:104DA80010EE904A34F000482DED028B15D010EE2D
:104DB800105A25F00047B7F1FF4F10EE109A06DDA4
:104DC800BDEC028BBA48BDE8F04700F045BCB8F12D
:104DD800FF4F08DDB7F17E5FF2D1B7EE000ABDECF8
:104DE800028BBDE8F087002D10EE906AC0F2F680C5
:104DF8004FF0000AB8F1FF4F00F00481B8F17E5F70
:104E080000F02A81B6F1804F00F03F81B6F17C5F57
:104E180000EE105A40F00381B9F1000F80F23A8198
:104E280000F004FCB7F1FF4F00F00B81002F00F0F9
:104E38000481B7F17E5F00F0FA804FEAD972013A37
:104E48005AEA020300F02C81B8F19A4F40F35281DC
:104E5800984B9F4240F35F82974B9F4200F301813A
:104E6800F7EE007A30EE670ADFED946ADFED947AA8
:104E7800DFED945A9FED946AB5EE007AE0EE476A4A
:104E8800B6EE007AA6EEC07AF0EE476A20EE007A17
:104E980027EE267A67EEC77AE0EE257AF0EE676AA3
:104EA800E0EE066A16EE903A23F47F6323F00F03D0
:104EB80007EE103AA0EE467A06EE903A77EEC77AF9
:104EC80026F47F6626F00F0607EE104A06EE106AF3
:104ED80067EE877A37EE466A07EE106AE6EE267ABC
:104EE8000AF1FF3A5AEA020326EE877AB7EE000A79
:104EF80077EE876ABFEE006A16EE903A0CBFB0EE06
:104F0800468AB0EE408A002B23F0004240F3B98174
:104F1800B2F1864F00F3F88100F0EB81B2F17C5FCB
:104F280000F3BB810022104623F47F6323F00F03B4
:104F380006EE103ADFED656ADFED655A9FED653ADA
:104F4800DFED653A9FED652A9FED654ADFED654A1D
:104F58009FED655A36EE477AF0EE002A77EEC77A6B
:104F680026EE267AA7EEA57AF7EE005AF0EE477AF3
:104F7800A6EE037A67EE076AF0EE471AE6EE431AE2
:104F8800B0EE636AA6EE826A77EEE17AA6EE264A6A
:104F9800E7EE277AE4EE264AA4EEA65AB0EE456A72
:104FA800B0EE475AA6EE665AF0EE456A36EEE26A69
:104FB80027EE055AC5EE066A76EEE77A37EEC77A27
:104FC80035EEC70A10EE103A1344B3F5000FC0F2DD
:104FD800BA8100EE103A20EE080A00E7B8F1974FC0
:104FE8001ADAB8F17E5F0ADB4FEAE853C3F1960399
:104FF80048FA03F202FA03F3434500F03D814FF00B
:10500800000AFBE6B7F17E5F3FF4E7AE2FDD002E26
:105018002ADB00EE104AE2E64FF0020AEAE600F068
:1050280005FBB7F1FF4F02D0002F7FF402AF002E2F
:10503800BCBFF7EE007A87EE800AB9F1000FBFF621
:10504800CEAEA7F17E5757EA0A0340F00E8170EE04
:10505800407A87EEA70AC2E6002E0FDB00EE105A50
:10506800BDE6002E00F35A819FED200AB7E6002E18
:10507800FADA07EE904AB1EE670AB0E607EE105A80
:10508800F7EE007A87EE870AA9E607EE905A27EE30
:10509800A70AA4E6BDEC028BBDE8F04700F07EB994
:1050A80007EE905A77EEE77A87EEA70A97E600BFF1
:1050B80070580008F7FF7F3F0700803FABAAAA3E61
:1050C8003BAAB83F70A5EC3600AAB83F8CBEBF35E6
:1050D8001872313F0072313F0EEADDB54CBB3133F7
:1050E80055B38A38610B36BBABAA2A3E00000000D4
:1050F8000000804B19F0FF4F40F0F9805FED047A13
:1051080060EE277A6FF0170117EE907A8F48FB153B
:10511800C7F316077F3B87420B4447F07E5140F3A5
:10512800DE808B48874240F3FE80DFED8A4A0133F8
:10513800A1F50001F0EE643A0020B7EE006A06EE31
:10514800901A76EE867AB7EE007A87EE278A4910AB
:1051580041F0005101F58021014436EEC67A07EE90
:10516800901A27EE082A77EEC65A9FED7B4A7B49AC
:10517800DFED7B8A9FED7B0ADFED7B0A9FED7B1AD3
:10518800DFED7B1ADFED7B2A9FED7B3A9FED7B5AA3
:1051980022EE026A12EE100A76EEE56AF0EE445A42
:1051A800E6EE285A084004EE100AA4EE677AF0EEFC
:1051B800407AE5EE867AA4EE667AE7EE860A67EE2E
:1051C800086AB0EE417AA0EE867A72EE047AE7EECB
:1051D800061A67EEA67A26EE066AF0EE085AE6EE9A
:1051E800217AB0EE656AA4EE046A07EE103A36EE4C
:1051F800276AB8EEC77A16EE103A0B4006EE103A58
:1052080076EE655AE4EE445A77EEE57A67EE827AEE
:10521800E6EE867AF0EE675AE4EE065A15EE903A14
:105228000B4006EE903AE4EE466A05EE903A77EEC9
:10523800E67A67EEA27AE5EE837A77EEA37AF0EE65
:10524800676AE5EE856A76EEA46A76EE876A16EEF8
:10525800903A0B4006EE903A36EEC77A37EE647A0B
:10526800A5EEC57A77EEC77A2AE6BAF1010F7FF480
:10527800B6ADB1EE400AB2E502F00102C2F1020A8F
:10528800BCE53F498A4257DC7FF448AE76EEC76AF0
:10529800F4EEE76AF1EE10FA4EDAD2154FF4000197
:1052A8007E3A41FA02F21A44C2F3C751354C7F39AB
:1052B8000C41C2F3160022EA040206EE902A37EEE9
:1052C800667AC1F1170140F400000841002B77EE1F
:1052D800876AB8BF404216EE903AC20524E6DFED71
:1052E8001D4A0020F0EE643AB7EE006A27E7002175
:1052F8000CE79FED256A76EEC76A37EE866AB4EE4C
:10530800E66AF1EE10FAC8DDDFED207A28EE270A0A
:1053180020EE270A63E5002EBFF6A6AE9FED1B0A16
:1053280020EE000A5BE5DFED1A4ADFED1A3A4FF48A
:105338000010B7EE086A02E7DFED177A28EE270AB1
:1053480020EE270A4BE500F0EBF944E671C41C0097
:10535800D6B35D000000000055326C3E00F0FFFF40
:1053680042F1533E05A38B3EABAAAA3EB76DDB3E86
:105378009A99193F4F38763FA0C39D360038763F3B
:1053880000001643FFFF7F003CAA3833CAF2497178
:1053980000C0153FDCCFD1356042A20DB1EEC00A86
:1053A800704700BF51EC100B10EE102A21F000439B
:1053B80043EC102B704700BF82B08DED000B0198B5
:1053C80040F0004000F58010C00F02B0704700BFE9
:1053D8009FED010B704700BF000000000000F87F40
:1053E800F0B553EC102BC3F30A56A6F2FF3013287E
:1053F80010EE105A83B019464FEAD37431DC0028F6
:105408004CDB3E4E064103EA060717432ED003EA5B
:1054180056031D434FEA56060CD04FF48023132839
:1054280021EA060643FA00F141EA06010CBF4FF0F3
:1054380000450025324800EBC4042A46D4E900455B
:105448000B4620462946FAF7D1FECDE90001DDE9F1
:10545800000122462B46FAF7C7FE41EC100B03B0B9
:10546800F0BD332806DDB0F5806F40D043EC102B3B
:1054780003B0F0BDA6F213464FF0FF30F0400242F1
:10548800F4D015EA50024FEA5003D3D04FF08042CF
:1054980025EA030542FA06F63543CBE723F0004038
:1054A8001043E3D0C3F313001043454205431448A7
:1054B80000EBC400D0E90067590C2D0B490405F432
:1054C800002545EA010330463946FAF78FFECDE953
:1054D80000013B46DDE900013246FAF785FE21F07E
:1054E800004343EAC47141EC100B03B0F0BD10EE69
:1054F800100AFAF77BFE41EC100BB9E7FFFF0F002B
:10550800785800080000000038B553EC102BC3F39E
:105518000A511C46054681BB10EE101A23F00044C0
:10552800214329D0194600223D4B3E4C10EE100A6B
:10553800FBF712F8A54202460B4616DB0C46C1F3F0
:105548000A513639294440F2FE70814221DC002993
:1055580047DC11F1350F34DA4CF250318D4218DC4A
:10556800002B27A1D1E9000144DB25A3D3E90023BF
:10557800FAF7F2FF41EC100B38BD40F2FF708142A0
:10558800E0D110EE100A1946FAF730FE41EC100B84
:1055980038BD002B1CA1D1E9000107DB1AA3D3E910
:1055A8000023FAF7D9FF41EC100B38BD18A1D1E957
:1055B800000115A3D3E90023FAF7CEFF41EC100B45
:1055C800F3E724F0FF4424F4E004363144EA0153BD
:1055D800104619460022144BFAF7BEFF41EC100B97
:1055E80038BD24F0FF4424F4E00444EA015343ECBA
:1055F800102B38BD08A1D1E90001B6E7AFF3008050
:1056080059F3F8C21F6EA5019C7500883CE4377EEB
:105618009C7500883CE437FE59F3F8C21F6EA581DB
:1056280000005043B03CFFFF0000903C10EE103AE1
:1056380023F0004300EE103A704700BF82B08DEDB2
:10564800010A019820F00040B0F1FF4FACBF0020E4
:10565800012002B0704700BF9FED010A704700BFEC
:105668000000C07F10EE101AC1F3C753A3F17F02E8
:10567800162A21F0004328DC33B310B4002A83B083
:105688004FEAD17027DB244B1341194218D05C082C
:1056980011EA530307D04FF4001321EA0401134120
:1056A8000B4300EE103A1D4B03EB8000D0ED007A5F
:1056B80037EE800A8DED010A9DED010A30EE670A8A
:1056C80003B05DF8044B70477047B3F1FF4FFBD34D
:1056D80030EE000A7047C1F316035B420F4A5B0ABB
:1056E800090D03F480030905194302EB8002D2ED8A
:1056F800006A07EE901A36EEA77A8DED017ADDED95
:10570800017A77EEE67A17EE903A23F0004343EAFF
:10571800C07300EE103AD3E7FFFF7F0088580008F7
:1057280082B08DED010A019B33F000422AD0B2F11C
:10573800FF4F23D213F0FF4F28D19DED017ADFED03
:105748002A7A2A4B67EE277A9842CDED017A37DB21
:10575800019BC3F3C752193A0244FE2A1ADD9FED92
:10576800240A9FED247A019B002BF0EE407AB8BF03
:10577800B0EE470A20EE270A02B0704730EE000A62
:1057880002B070479DED010A02B07047D20D024485
:10579800FE2AE4DC002A0BDC12F1160F17DA4CF2B1
:1057A80050339842DBDC9FED140A9FED147ADAE758
:1057B80023F0FF4343EAC25300EE103A02B07047A9
:1057C8009FED0D0ADDED017A27EE800AD8E7193240
:1057D80023F0FF4343EAC253DFED097A07EE103A9C
:1057E80027EE270ACCE700BF0000004CB03CFFFFC3
:1057F800CAF24971CAF249F16042A20D6042A28D13
:1058080000000033014B1868704700BF10000020EB
:10581800F8B500BFF8BC08BC9E467047F8B500BF95
:08582800F8BC08BC9E46704765
:1058300054656D703A00000002030405060708096C
:105840000A0B0C0D0E0F10100102030405060708C9
:10585000090A0B0C0D0E0F100000000000000000E4
:105860000102030406070809000000000102030406
:1058700000000000000000000000000000003043B5
:1058800000000000000030C30000004B000000CB0F
:04589000BD0100084E
:04589400990100086E
:1058980001000000100000000100000000127A0062
:1058A80014000020000000000000000000000000BC
:1058B80000000000000000000000000000000000E0
:1058C80000000000000000000000000000000000D0
:1058D80000000000000000000000000000000000C0
:1058E80000000000000000000000000000000000B0
:1058F80000000000000000000000000000000000A0
:0859080000000000FF00000098
:04000005080038397E
:00000001FF
