:020000040800F2
:100000000000012081390008C50F0008C70F000853
:10001000C90F0008CB0F0008CD0F0008000000003A
:10002000000000000000000000000000CF0F0008EA
:10003000D10F000800000000D30F0008D50F000802
:10004000D1390008D1390008D1390008D139000868
:10005000D1390008D1390008D1390008D139000858
:10006000D1390008D1390008D1390008D139000848
:10007000D1390008D1390008D1390008D139000838
:10008000D1390008D1390008D1390008D139000828
:10009000D1390008D1390008D1390008D139000818
:1000A000D1390008D1390008D1390008D139000808
:1000B000D1390008D1390008D1390008D1390008F8
:1000C000D1390008D1390008D1390008D1390008E8
:1000D000D1390008D1390008D1390008D1390008D8
:1000E000D1390008D1390008D1390008D1390008C8
:1000F000D1390008D1390008D1390008D1390008B8
:10010000D13900080000000000000000D1390008CB
:10011000D1390008D1390008D1390008D139000897
:10012000D1390008D1390008D1390008D139000887
:10013000D1390008D139000800000000000000009B
:10014000D1390008D1390008D13900080000000079
:10015000000000000000000000000000000000009F
:10016000D1390008D1390008D1390008D139000847
:10017000D1390008D1390008D1390008D139000837
:10018000D1390008D139000800000000000000004B
:04019000D139000859
:1001A00010B5054C237833B9044B13B10448AFF3B1
:1001B00000800123237010BD7800002000000000A3
:1001C0009468000808B5034B1BB103490348AFF31B
:1001D000008008BD000000007C000020946800083A
:1001E000034613F8012B002AFBD1181A0138704777
:1001F00001F0FF01102A2BDB10F0070F08D010F8D8
:10020000013B013A8B422DD010F0070F42B3F6D1DB
:10021000F0B441EA012141EA014122F007047FF0F4
:1002200000070023F0E80256083C85EA010586EA4B
:10023000010685FA47F5A3FA87F586FA47F6A5FA87
:1002400087F68EB9EED1F0BC01F0FF0102F0070293
:1002500032B110F8013B013A83EA010313B1F8D13E
:100260000020704701387047002D06BF354603381F
:10027000073815F0010F07D1013015F4807F02BF58
:10028000013015F4C03F0130F0BC0138704700BFA9
:1002900081F0004102E000BF83F0004330B54FEA37
:1002A00041044FEA430594EA050F08BF90EA020FA4
:1002B0001FBF54EA000C55EA020C7FEA645C7FEA37
:1002C000655C00F0E2804FEA5454D4EB5555B8BF5A
:1002D0006D420CDD2C4480EA020281EA030382EACB
:1002E000000083EA010180EA020281EA0303362D5D
:1002F00088BF30BD11F0004F4FEA01314FF4801C30
:100300004CEA113102D0404261EB410113F0004F41
:100310004FEA03334CEA133302D0524263EB4303F8
:1003200094EA050F00F0A780A4F10104D5F1200E96
:100330000DDB02FA0EFC22FA05F2801841F10001F1
:1003400003FA0EF2801843FA05F359410EE0A5F1C5
:1003500020050EF1200E012A03FA0EFC28BF4CF0F6
:10036000020C43FA05F3C01851EBE37101F00045AC
:1003700007D54FF0000EDCF1000C7EEB00006EEBB9
:100380000101B1F5801F1BD3B1F5001F0CD3490843
:100390005FEA30004FEA3C0C04F101044FEA44529A
:1003A00012F5800F80F09A80BCF1004F08BF5FEA21
:1003B000500C50F1000041EB045141EA050130BD01
:1003C0005FEA4C0C404141EB0101013C28BFB1F513
:1003D000801FE9D291F0000F04BF01460020B1FA5E
:1003E00081F308BF2033A3F10B03B3F120020CDA31
:1003F0000C3208DD02F1140CC2F10C0201FA0CF00F
:1004000021FA02F10CE002F11402D8BFC2F1200C73
:1004100001FA02F120FA0CFCDCBF41EA0C01904029
:10042000E41AA2BF01EB0451294330BD6FEA040472
:100430001F3C1CDA0C340EDC04F11404C4F120025D
:1004400020FA04F001FA02F340EA030021FA04F36F
:1004500045EA030130BDC4F10C04C4F1200220FAC6
:1004600002F001FA04F340EA0300294630BD21FA04
:1004700004F0294630BD94F0000F83F4801306BFCA
:1004800081F480110134013D4EE77FEA645C18BFBE
:100490007FEA655C29D094EA050F08BF90EA020F55
:1004A00005D054EA000C04BF1946104630BD91EA4D
:1004B000030F1EBF0021002030BD5FEA545C05D150
:1004C0004000494128BF41F0004130BD14F580048F
:1004D0003CBF01F5801130BD01F0004545F0FE4103
:1004E00041F470014FF0000030BD7FEA645C1ABF38
:1004F000194610467FEA655C1CBF0B46024650EA6F
:10050000013406BF52EA033591EA030F41F400219A
:1005100030BD00BF90F0000F04BF0021704730B520
:100520004FF4806404F132044FF000054FF00001F5
:1005300050E700BF90F0000F04BF0021704730B5B6
:100540004FF4806404F1320410F0004548BF40428B
:100550004FF000013EE700BF42004FEAE2014FEAE0
:1005600031014FEA02701FBF12F07F4393F07F4FBB
:1005700081F06051704732F07F4208BF704793F0BE
:100580007F4F04BF41F40021704730B54FF46074D1
:1005900001F0004521F000411CE700BF50EA0102D4
:1005A00008BF704730B54FF000050AE050EA01027D
:1005B00008BF704730B511F0004502D5404261EBED
:1005C00041014FF4806404F132045FEA915C3FF42E
:1005D000D8AE4FF003025FEADC0C18BF03325FEACB
:1005E000DC0C18BF033202EBDC02C2F1200300FA7C
:1005F00003FC20FA02F001FA03FE40EA0E0021FAA1
:1006000002F11444BDE600BF70B54FF0FF0C4CF48E
:10061000E06C1CEA11541DBF1CEA135594EA0C0F40
:1006200095EA0C0F00F0DEF82C4481EA030621EA7B
:100630004C5123EA4C5350EA013518BF52EA0335B6
:1006400041F4801143F4801338D0A0FB02CE4FF068
:100650000005E1FB02E506F00042E0FB03E54FF098
:100660000006E1FB03569CF0000F18BF4EF0010E90
:10067000A4F1FF04B6F5007F64F5407404D25FEA8C
:100680004E0E6D4146EB060642EAC62141EA55513F
:100690004FEAC52040EA5E504FEACE2EB4F1FD0C81
:1006A00088BFBCF5E06F1ED8BEF1004F08BF5FEAFF
:1006B000500E50F1000041EB045170BD06F00046B1
:1006C00046EA010140EA020081EA0301B4EB5C045E
:1006D000C2BFD4EB0C0541EA045170BD41F4801156
:1006E0004FF0000E013C00F3AB8014F1360FDEBF7B
:1006F000002001F0004170BDC4F10004203C35DA57
:100700000C341BDC04F11404C4F1200500FA05F3D9
:1007100020FA04F001FA05F240EA020001F000427A
:1007200021F0004110EBD37021FA04F642EB0601F0
:100730005EEA430E08BF20EAD37070BDC4F10C041A
:10074000C4F1200500FA04F320FA05F001FA04F2DE
:1007500040EA020001F0004110EBD37041F10001CA
:100760005EEA430E08BF20EAD37070BDC4F12005D5
:1007700000FA05F24EEA020E20FA04F301FA05F23D
:1007800043EA020321FA04F001F0004121FA04F2E5
:1007900020EA020000EBD3705EEA430E08BF20EAB5
:1007A000D37070BD94F0000F0FD101F000464000EF
:1007B00041EB010111F4801F08BF013CF7D041EA71
:1007C000060195F0000F18BF704703F00046520075
:1007D00043EB030313F4801F08BF013DF7D043EA46
:1007E0000603704794EA0C0F0CEA135518BF95EAFC
:1007F0000C0F0CD050EA410618BF52EA4306D1D183
:1008000081EA030101F000414FF0000070BD50EAA1
:10081000410606BF1046194652EA430619D094EA2B
:100820000C0F02D150EA013613D195EA0C0F05D115
:1008300052EA03361CBF104619460AD181EA030169
:1008400001F0004141F0FE4141F470014FF0000021
:1008500070BD41F0FE4141F4780170BD70B54FF0BC
:10086000FF0C4CF4E06C1CEA11541DBF1CEA13553C
:1008700094EA0C0F95EA0C0F00F0A7F8A4EB05041E
:1008800081EA030E52EA03354FEA013100F0888015
:100890004FEA03334FF0805545EA131343EA1263DE
:1008A0004FEA022245EA111545EA10654FEA002693
:1008B0000EF000419D4208BF964244F1FD0404F54C
:1008C000407402D25B084FEA3202B61A65EB0305A8
:1008D0005B084FEA32024FF480104FF4002CB6EB65
:1008E000020E75EB030E22BFB61A754640EA0C00E5
:1008F0005B084FEA3202B6EB020E75EB030E22BF25
:10090000B61A754640EA5C005B084FEA3202B6EB65
:10091000020E75EB030E22BFB61A754640EA9C0024
:100920005B084FEA3202B6EB020E75EB030E22BFF4
:10093000B61A754640EADC0055EA060E18D04FEAB2
:10094000051545EA16754FEA06164FEAC30343EA52
:1009500052734FEAC2025FEA1C1CC0D111F4801F1F
:100960000BD141EA00014FF000004FF0004CB6E718
:1009700011F4801F04BF01430020B4F1FD0C88BFB7
:10098000BCF5E06F3FF6AFAEB5EB030C04BFB6EBC2
:10099000020C5FEA500C50F1000041EB045170BDB5
:1009A0000EF0004E4EEA113114EB5C04C2BFD4EBE2
:1009B0000C0541EA045170BD41F480114FF0000E66
:1009C000013C90E645EA060E8DE60CEA135594EAE2
:1009D0000C0F08BF95EA0C0F3FF43BAF94EA0C0FE5
:1009E0000AD150EA01347FF434AF95EA0C0F7FF45A
:1009F00025AF104619462CE795EA0C0F06D152EAAE
:100A000003353FF4FDAE1046194622E750EA410691
:100A100018BF52EA43067FF4C5AE50EA41047FF4A2
:100A20000DAF52EA43057FF4EBAE12E74FF0FF3C07
:100A300006E000BF4FF0010C02E000BF4FF0010CD8
:100A40004DF804CD4FEA410C7FEA6C5C4FEA430C51
:100A500018BF7FEA6C5C1BD001B050EA410C0CBFA0
:100A600052EA430C91EA030F02BF90EA020F002002
:100A7000704710F1000F91EA030F58BF994208BF69
:100A800090422CBFD8176FEAE37040F00100704726
:100A90004FEA410C7FEA6C5C02D150EA013C07D17D
:100AA0004FEA430C7FEA6C5CD6D152EA033CD3D0C8
:100AB0005DF8040B704700BF8446104662468C46C2
:100AC0001946634600E000BF01B5FFF7B7FF0028F5
:100AD00048BF10F1000F01BD4DF808EDFFF7F4FF1E
:100AE0000CBF012000205DF808FB00BF4DF808EDA9
:100AF000FFF7EAFF34BF012000205DF808FB00BFCC
:100B00004DF808EDFFF7E0FF94BF012000205DF8ED
:100B100008FB00BF4DF808EDFFF7CEFF94BF0120A2
:100B200000205DF808FB00BF4DF808EDFFF7C4FF9B
:100B300034BF012000205DF808FB00BF4FEA410CE4
:100B40007FEA6C5C02D150EA013C0AD14FEA430CC7
:100B50007FEA6C5C02D152EA033C02D14FF0000004
:100B600070474FF0010070474FEA410212F5001242
:100B700015D211D56FF47873B3EB625212D94FEAE4
:100B8000C12343F0004343EA505311F0004F23FACE
:100B900002F018BF404270474FF00000704750EA23
:100BA000013005D111F0004008BF6FF000407047E0
:100BB0004FF00000704700BF4FEA4102B2F1E0433E
:100BC00024BFB3F5001CDCF1FE5C0DD901F0004C34
:100BD0004FEAC0024CEA5070B2F1004F40EB830084
:100BE00008BF20F00100704711F0804F21D113F1B0
:100BF0003872BCBF01F00040704741F480114FEAE9
:100C00005252C2F11802C2F1200C10FA0CF320FA71
:100C100002F018BF40F001004FEAC1234FEAD3238E
:100C200003FA0CFC40EA0C0023FA02F34FEA4303F8
:100C3000CCE77FEA625307D150EA01331EBF4FF081
:100C4000FE4040F44000704701F0004040F0FE409C
:100C500040F40000704700BF82B0064B5A6942F46E
:100C600080225A615B6903F480230193019B02B0E7
:100C7000704700BF00100240FEE7000000B587B0DB
:100C800018484FF0A04303604FF440334360002303
:100C90008360C360036104224261037601224276CD
:100CA000C26180F8203042628262C36280F83030D4
:100CB000436300F083FA80B9012300930193062374
:100CC000029300230393049305936946054800F0BB
:100CD0003FFD20B907B05DF804FBFFF7CDFFFFF73C
:100CE000CBFF00BF2401002010B584B0134C144B7F
:100CF000236001F07DFC134BA3FB0023DB0C013BC5
:100D0000E36040F24A43636000232361A3606361B0
:100D1000A361204600F072FF58B9202301930023FD
:100D20000293039301A9054800F082FF18B904B0AB
:100D300010BDFFF7A1FFFFF79FFF00BF7803002062
:100D4000002C0140518C207A08B51148114B0360EA
:100D5000114B4360682383600123C3600023036158
:100D600043618361C361036201F008FF50B9002150
:100D7000074802F0F3F938B90021054802F01CFADF
:100D800020B908BDFFF778FFFFF776FFFFF774FF84
:100D9000A4000020005400400E09002000B591B0CE
:100DA00000230193022307934FF400430893012388
:100DB0000A934FF4601309931023059301A800F0E0
:100DC000E5FF80B90F230B9302210C9100230D93B3
:100DD0004FF480620E920F930BA801F02FFB20B905
:100DE00011B05DF804FBFFF747FFFFF745FF000078
:100DF00030B52DED028B89B000F090FF4FF4807379
:100E000003934FF4007302938023019340230093D4
:100E10002023102202214FF0904002F03BFC644856
:100E200002F06CFC0121002002F0F2FAFFF7B6FF9D
:100E3000FFF724FFFFF758FFFFF70EFFFFF784FFD0
:100E400002F072FC5B4800F059FE08B1FFF714FF96
:100E5000594800F00FFB02F0ABFC574C4FF0FF314C
:100E6000204600F0C7FB204600F06EFC80B2FFF782
:100E700061FB41A3D3E90023FFF7C6FB04460D46FF
:100E800002460B463EA1D1E90001FFF705FA3EA359
:100E9000D3E90023FFF7B8FB22462B46FFF7DEFC21
:100EA00041EC180B41EC100B03F016FD51EC100B4C
:100EB000FFF782FEFFF750FB35A3D3E90023FFF7CE
:100EC000A3FB35A3D3E90023FFF7E8F904460D4659
:100ED000B0EE480AF0EE680A03F0FEFC51EC100B8D
:100EE000FFF76AFEF0EE080A00EE100A03F00EFEAD
:100EF00010EE100AFFF730FB29A3D3E90023FFF718
:100F000083FB02460B4620462946FFF7C5F9FFF74B
:100F100053FEFFF721FB02460B4600202749FFF74F
:100F20009DFC21A3D3E90023FFF7B6F9FFF744FEA8
:100F300000EE100A05A802F077FC0121002002F063
:100F400067FA05A802F0DAFB1D4B93ED000A05A82D
:100F500002F06AFC0121082002F05AFA05A802F00A
:100F6000CDFB05A802F062FD4FF47A7000F0FAFEA6
:100F700071E700BFAFF30080B4D934E70C684A3F93
:100F80006666666666660A40000000000088C34028
:100F9000A3F77006A497303FD662D52C67BF503FA9
:100FA000D508E63DA029D03D6666666666127140AA
:100FB000B068000878030020240100200000F03F02
:100FC000200100207047FEE7FEE7FEE7FEE77047DE
:100FD0007047704708B500F0B3FE08BD82B00A4BF9
:100FE0009A6942F001029A619A6902F00102009244
:100FF000009ADA6942F08052DA61DB6903F08053CB
:101000000193019B02B070470010024000B589B007
:101010000023039304930593069307930368B3F1A6
:10102000A04F02D009B05DF804FB03F1704303F553
:1010300004335A6942F080525A615A6902F0805270
:101040000192019A5A6942F400325A615B6903F4D1
:1010500000330293029B0123039303230493002391
:10106000059303A94FF0904001F0D8FADAE70000A9
:1010700010B588B000230793104C636943F48023B4
:101080006361636903F480230193019B4FF4407310
:10109000039312230493012305930323069303A9C7
:1010A000074801F0BBFAE36943F40013E361E36925
:1010B00003F400130293029B08B010BD001002401D
:1010C0000004004838B50268936803F00303012B5D
:1010D00001D0002038BD0446136813F0010F2ED054
:1010E000936803F00D03012B09D0036C43F0100348
:1010F0000364436C43F0010343640120EAE793680F
:1011000043F002039360036803221A6000F024FE98
:10111000054623689B6813F0010F0ED000F01CFEFB
:10112000401B0228F5D9236C43F010032364636C41
:1011300043F0010363640120CCE70020CAE70020EC
:10114000C8E7000038B504460268936803F003035B
:10115000012B0DD09168184B19420FD0236C43F02E
:1011600010032364636C43F001036364012038BD02
:10117000136813F0010FEDD00020F8E7936843F0F7
:101180000103936000F0E8FD054623681B6813F037
:10119000010F0ED100F0E0FD431B022BF5D9236CAB
:1011A00043F010032364636C43F001036364012084
:1011B000DDE70020DBE700BF3F00008030B597B0DF
:1011C00000230193002800F043810446036C13F0D0
:1011D000100F52D1036CABB1002023689A6812F053
:1011E000805F03D09B6813F0005F47D0236C23F02F
:1011F000120343F010032364636C43F00103636440
:1012000001203BE04364C364836480F83C30FFF713
:10121000FDFE23689B6813F0805F01D00020DCE7AF
:101220002046FFF74FFF236C13F0100FD5D1002895
:10123000D3D1236C23F4885323F0020343F0020339
:1012400023642268936823F0405393602268936874
:1012500043F0805393607F4B1B687F4AA2FB0323BC
:101260009B0C03EB83035B00019302E0019B013BBA
:101270000193019B002BF9D1AFE70020236C13F001
:10128000100F40F0DC80002840F0D9802368996876
:1012900011F0040140F0D380226C22F4817242F0FC
:1012A00002022264B3F1A04F14D06C4A93420FD0D3
:1012B0006B4DB3F1A04F0FD0684A934269D0694A91
:1012C00093426AD0684A93426BD00022029205E0B2
:1012D000664DEEE7654DECE7604A02929A6802F0CF
:1012E0000302012A61D0029B23B19A6802F0030233
:1012F000012A5FD0AB6823F4403362681343AB60CC
:10130000627E5303656B012D01D04FF480510B4376
:10131000E1680B43A1680B4394F8201001294ED0DB
:10132000A26A012A0CD021684E4DA9425AD005F577
:101330008075A94256D022F48052E16A0A431343D1
:101340002268916811F00C0F0CD1D16821F4804112
:1013500021F00201D160217E94F83020520042EA4F
:10136000813213432168CD68414A2A401343CB6040
:101370002369012B5AD02268136B23F00F031363E8
:1013800000236364236C23F0030343F0010323640D
:101390005CE04FF0A0420292A0E702F58072029258
:1013A0009CE7A2F58072029298E71B6813F0010F88
:1013B000A6D198E71B6813F0010FA1D19AE732B9C3
:1013C000626A013A43EA424343F48033A8E7226C5D
:1013D00022F0220242F020022264626C42F00102FA
:1013E00062649DE7B2F5307F11D0B2F5807F11D0F5
:1013F000B2F5E07F11D0B2F58A5F11D0B2F5845F0B
:1014000011D0B2F5865F98D14FF4C07295E74FF4D2
:10141000E07292E74FF430728FE74FF480728CE7FE
:101420004FF4707289E74FF4A07286E721680B6B66
:1014300023F00F03E269013A13430B63A0E7236C27
:1014400023F0120343F010032364012017B030BDD2
:101450000120FBE70C00002083DE1B43000100504D
:101460000007005000040050000500500003005029
:1014700007C0F0FF03689B6813F0040F40F0AD80D5
:1014800010B5044690F83C30012B00F0A8800123F1
:1014900080F83C30FFF756FE002840F09A80236C1D
:1014A00023F4706323F0010343F4807323642368FF
:1014B000B3F1A04F33D04B4A934230D04A4A92689E
:1014C00012F01F0F30D1226C22F480122264DA68ED
:1014D00012F0007F05D0226C22F4405242F4805278
:1014E0002264226C12F4805F3ED0626C22F006020D
:1014F0006264002284F83C201C221A602368B3F145
:10150000A04F34D0374A934231D0374A926812F014
:101510001F0F31D19A6842F004029A605CE0334AAE
:10152000926812F01F0FCED0B3F1A04FCBD0304A4B
:101530009342C8D0226C42F480122264294A93421A
:101540000CD02B4AD268C2F34062002AC9D0226C68
:1015500022F4405242F480522264C2E74FF0A0428B
:10156000D268C2F34062F0E700226264C1E71F4A1A
:10157000926812F01F0FCDD0B3F1A04F09D0194AD5
:10158000934206D0184A926802F01F02052A06D13B
:10159000C0E7164A926802F01F02052ABAD0B3F1DA
:1015A000A04F09D00F4A934206D00F4A926802F02A
:1015B0001F02092A06D1ADE70C4A926802F01F0209
:1015C000092AA7D0B3F1A04FA4D0094A934203D16E
:1015D000A0E7002384F83C3010BD022070470220B1
:1015E000FAE700BF00010050000700500003005060
:1015F000000400502DE9F04104460D464669082ECE
:1016000010D00368B3F1A04F36D04B4A934230D08C
:101610004A4A916811F01F0F39D1DB6813F0010FAE
:101620002CD10C262368B3F1A04F3FD0424A9342FD
:101630003CD0424A926812F01F0F3CD1D3F80C8084
:1016400000F08AFB074623681A68324243D1B5F19D
:10165000FF3FF8D025B100F07FFBC01BA842F2D9B4
:10166000236C43F004032364002384F83C300320FC
:101670005EE002F50072CCE7314ACAE7236C43F022
:1016800020032364002384F83C30012050E0936859
:1016900013F4404F01D10C26C4E7236C43F0200320
:1016A0002364002384F83C30012041E0244A9268FE
:1016B00012F01F0FC2D0B3F1A04FBFD0214A934206
:1016C000BCD01D4A934203D01E4BD3F80C80B7E721
:1016D0004FF0A043F9E7226C42F400722264DA680A
:1016E00012F4406F1FD118F4005F1CD11A6812F079
:1016F000080F18D09A6812F0040F0CD1226C22F453
:1017000080722264226C12F4805F0CD1226C42F051
:101710000102226407E0226C42F020022264626C23
:1017200042F00102626418F4804F03D11E60002071
:10173000BDE8F0810020FBE70001005000070050E9
:1017400000030050000400500368186C704700004C
:1017500030B496B00022019290F83C20012A00F0AB
:10176000B8810346012280F83C200068826812F0AC
:10177000040F40F0A3814A68042A32D8046B02EBBC
:10178000420252001F25954024EA05040D6805FA1F
:1017900002F2224302631868826812F00C0F68D1CB
:1017A0000A68092A4ED9846902EB42021E3A0725CB
:1017B000954024EA05048D6805FA02F2224382610D
:1017C00048691C68E268C2F3C102520000FA02F2E2
:1017D00008690138032800F29580DFE800F04072C4
:1017E0007D88092A0ED8446B02EB420252001E3A51
:1017F0001F25954024EA05040D6805FA02F22243EC
:101800004263C8E70E2A0ED8846B02EB42025200F4
:101810003C3A1F25954024EA05040D6805FA02F2BA
:1018200022438263B7E7C46B02EB420252005A3A8A
:101830001F25954024EA05040D6805FA02F22243AB
:10184000C263A8E7446902EB42020725954024EAF7
:1018500005048D6805FA02F222434261B0E7206E6A
:101860009D4D0540086842EA8062154345F00045F9
:1018700025661868826802F00302012A72D0CA68DD
:10188000012A75D0D0F8B0200D680124AC4022EABE
:101890000402C0F8B0201A68B2F1A04F00F09380A3
:1018A0008E48824200F08D808D4C0968102900F02E
:1018B0008C80112900F09D80122900F09F8000206B
:1018C00001E1606E844D0540086842EA806215437C
:1018D00045F000456566CCE7A06E7F4D0540086881
:1018E00042EA8062154345F00045A566C1E7E56E12
:1018F000794828400D6842EA8562024342F000427E
:10190000E266B6E7226E02F0F8420868B2EB806F3A
:1019100003D1226E22F0004222661A68506E00F057
:10192000F8400C68B0EB846F03D1506E20F000409B
:1019300050661A68906E00F0F8400C68B0EB846F47
:1019400003D1906E20F0004090661A68D06E00F0CF
:10195000F8400C68B0EB846F8BD1D06E20F0004063
:10196000D06686E7026812F0010F88D00020AAE056
:10197000D0F8B0200D680124AC402243C0F8B0205C
:101980000A68092A0ED91D68A86902EB42021B3AAF
:101990000724944020EA04008C6804FA02F202430F
:1019A000AA6178E71D686869013202EB42020724E8
:1019B000944020EA04008C6804FA02F202436A614F
:1019C00069E7484C71E7474C6FE7A06810F4000FD7
:1019D0007FF46FAFB2F1A04F16D04048824229D0B9
:1019E000414882422AD0414882422BD000200290B6
:1019F0000CE0A06810F0807FECD05DE7A06810F4E8
:101A0000800FE7D000205EE034480290906800F03C
:101A1000030001281AD0029820B1856805F003055B
:101A2000012D1DD0102920D0112938D012293FD0E6
:101A3000002048E04FF0A0400290E7E700F58070FA
:101A40000290E3E7A0F580700290DFE7106810F0E5
:101A5000010FE0D01A6C42F020021A64012032E03B
:101A6000006810F0010FF5D1DCE7B2F1A04FDBD137
:101A7000A26842F40002A2601D4A12681D49A1FB3F
:101A80000212920C02EB82025200019202E0019AD1
:101A9000013A0192019A002AF9D1002013E0B2F133
:101AA000A04FC3D1A26842F08072A26000200AE079
:101AB000A26842F48002A260002004E01A6C42F0A6
:101AC00020021A640120002283F83C2016B030BCAA
:101AD00070470220FAE700BF00F0FF8300010050CA
:101AE00000070050000300500004005000050050A3
:101AF0000C00002083DE1B4370470000022380F8A7
:101B00003D3002689168084B0B40062B06D0B3F5B8
:101B1000803F03D0136843F001031360012380F872
:101B20003D300020704700BF070001000368324AC3
:101B3000904212D0B0F1804F0FD0A2F59432904273
:101B40000BD002F58062904207D002F596329042A7
:101B500003D002F5E052904203D123F070034A68AB
:101B60001343254A90421ED0B0F1804F1BD0A2F5FE
:101B70009432904217D002F58062904213D002F561
:101B8000963290420FD002F5406290420BD002F59F
:101B90008062904207D002F58062904203D002F545
:101BA0000062904203D123F44073CA68134323F0C8
:101BB00080034A69134303608B68C3620B688362C6
:101BC0000D4B984213D003F5006398420FD003F5F4
:101BD000406398420BD003F58063984207D003F529
:101BE0008063984203D003F50063984201D10B69EA
:101BF0000363012343617047002C0140B0B110B56D
:101C0000044690F83D3063B1022384F83D3021460C
:101C100051F8040BFFF78AFF012384F83D300020C0
:101C200010BD80F83C30FFF767FFEDE701207047FB
:101C300090F83C30012B46D030B4012380F83C3082
:101C4000022380F83D300268536895681F4CA24219
:101C500007D004F50064A24203D004F5E054A24288
:101C600003D123F470034C68234323F070030C6802
:101C7000234353600368154A934216D0B3F1804F53
:101C800013D0A2F5943293420FD002F580629342B2
:101C90000BD002F59632934207D002F54062934290
:101CA00003D002F58052934204D125F080058A6862
:101CB00015439D60012380F83D30002380F83C30BF
:101CC000184630BC70470220704700BF002C01400E
:101CD00010B504460E4B18784FF47A73B3FBF0F34B
:101CE0000C4A1068B0FBF3F000F0BCFD68B90F2C93
:101CF00001D901200AE0002221464FF0FF3000F018
:101D00007DFD054B1C60002000E0012010BD00BFE0
:101D1000000000200C0000200400002008B5074A45
:101D2000136843F010031360032000F055FD0F20EB
:101D3000FFF7CEFFFFF752F9002008BD0020024058
:101D4000034A1168034B1B780B441360704700BFB4
:101D5000B803002000000020014B1868704700BF46
:101D6000B803002038B50446FFF7F6FF0546B4F186
:101D7000FF3F02D0044B1B781C44FFF7EDFF401BD4
:101D8000A042FAD338BD00BF00000020002800F0B8
:101D9000038370B582B00446036813F0010F3DD091
:101DA000C74B5B6803F00C03042B20D0C44B5B686B
:101DB00003F00C03082B13D06368B3F5803F6AD09F
:101DC000002B40F08D8003F1804303F504331A6843
:101DD00022F480321A601A6822F480221A605FE0CE
:101DE000B74B5B6803F4C033B3F5803FE4D14FF4E5
:101DF000003393FAA3F3B24B19684FF4003393FA0C
:101E0000A3F3B3FA83F303F01F03012202FA03F3EF
:101E10000B4203D06368002B00F0C082236813F0EC
:101E2000020F00F0C080A64B5B6813F00C0F00F0AF
:101E30009780A34B5B6803F00C03082B00F08880AD
:101E4000E368002B00F0ED80012292FAA2F3B3FACE
:101E500083F303F1845303F584139B001A60FFF7A7
:101E60007BFF0546022393FAA3F3954B19680223DF
:101E700093FAA3F3B3FA83F303F01F03012202FAE8
:101E800003F30B4240F0BE80FFF766FF401B0228C1
:101E9000E8D903208BE28A4A136843F48033136045
:101EA0006368002B36D0FFF757FF05464FF4003329
:101EB00093FAA3F3824B19684FF4003393FAA3F318
:101EC000B3FA83F303F01F03012202FA03F30B4278
:101ED000A4D1FFF741FF401B6428E7D9032066E245
:101EE000B3F5A02F09D0764B1A6822F480321A601D
:101EF0001A6822F480221A60D2E703F18043A3F526
:101F00003C331A6842F480221A601A6842F4803224
:101F10001A60C5E7FFF720FF05464FF4003393FA38
:101F2000A3F3674B19684FF4003393FAA3F3B3FAA2
:101F300083F303F01F03012202FA03F30B423FF481
:101F40006DAFFFF709FF401B6428E6D903202EE29E
:101F50005B4B5B6803F4C033B3F5004F7FF470AFA5
:101F6000022393FAA3F3564B1968022393FAA3F3BF
:101F7000B3FA83F303F01F03012202FA03F30B42C7
:101F800003D0E368934240F00B824D48036823F08E
:101F9000F8032169F82292FAA2F2B2FA82F201FA67
:101FA00002F213430360236813F0080F00F08C80E3
:101FB0006369002B5CD0012191FAA1F2B2FA82F29E
:101FC000404B13449B001960FFF7C6FE05460223F1
:101FD00093FAA3F293FAA3F293FAA3F2384A516A5E
:101FE00093FAA3F3B3FA83F303F01F03012202FA77
:101FF00003F30B4268D1FFF7AFFE401B0228E6D97E
:102000000320D4E12E48036823F0F8032169F82265
:1020100092FAA2F2B2FA82F201FA02F213430360D8
:10202000C1E7012393FAA3F3B3FA83F303F18453D3
:1020300003F584139B0000221A60FFF78DFE05460E
:10204000022393FAA3F31E4B1968022393FAA3F316
:10205000B3FA83F303F01F03012202FA03F30B42E6
:10206000A1D0FFF779FE401B0228E9D903209EE1A9
:10207000012292FAA2F2B2FA82F2124B13449B00AE
:1020800000221A60FFF768FE0546022393FAA3F2C6
:1020900093FAA3F293FAA3F2094A516A93FAA3F3CB
:1020A000B3FA83F303F01F03012202FA03F30B4296
:1020B0000AD0FFF751FE401B0228E6D9032076E143
:1020C0000010024020819010236813F0040F00F0EC
:1020D000A980BB4BDB6913F0805F20D1B84BDA6974
:1020E00042F08052DA61DB6903F080530193019B77
:1020F0000125B44B1B6813F4807F12D0A368012B19
:1021000023D073BB03F1804303F504331A6A22F032
:1021100001021A621A6A22F004021A621AE0002509
:10212000E7E7A84A136843F480731360FFF714FECF
:102130000646A44B1B6813F4807FDFD1FFF70CFE2B
:10214000801B6428F5D9032031E19D4A136A43F0CE
:1021500001031362A368002B3CD0FFF7FDFD064688
:102160002EE0052B09D0964B1A6A22F001021A6262
:102170001A6A22F004021A62ECE7914B1A6A42F0E2
:1021800004021A621A6A42F001021A62E2E70223AA
:1021900093FAA3F38A4B596A022393FAA3F3B3FA8F
:1021A00083F303F01F03012202FA03F3194238D12B
:1021B000FFF7D2FD801B41F28833984200F2F28093
:1021C000022393FAA3F293FAA3F3002BDFD07C4B04
:1021D000196AE1E7FFF7C0FD064618E0022393FA0B
:1021E000A3F3774B596A022393FAA3F3B3FA83F369
:1021F00003F01F03012202FA03F3194211D0FFF783
:10220000ABFD801B41F28833984200F2CD8002235F
:1022100093FAA3F293FAA3F3002BDFD0684B196A69
:10222000E1E7B5BBA369002B00F0C080644A5268A7
:1022300002F00C02082A00F09980022B2FD04FF0F8
:10224000807393FAA3F3B3FA83F303F1845303F592
:1022500084139B0000221A60FFF77EFD04464FF0B6
:10226000007393FAA3F3564B19684FF0007393FA77
:10227000A3F3B3FA83F303F01F03012202FA03F37B
:10228000194271D0FFF768FD001B0228E7D903202F
:102290008DE04B4AD36923F08053D361C2E74FF0FE
:1022A000807393FAA3F3B3FA83F303F1845303F532
:1022B00084139B0000221A60FFF74EFD05464FF085
:1022C000007393FAA3F33E4B19684FF0007393FA2F
:1022D000A3F3B3FA83F303F01F03012202FA03F31B
:1022E000194206D0FFF738FD401B0228E7D903202A
:1022F0005DE0334AD36A23F00F03616A0B43D36274
:10230000536823F47613216AE06901430B43536059
:102310004FF0807393FAA3F3B3FA83F303F184537A
:1023200003F584139B0001221A60FFF715FD044694
:102330004FF0007393FAA3F3214B19684FF0007329
:1023400093FAA3F3B3FA83F303F01F03012202FA13
:1023500003F3194206D1FFF7FFFC001B0228E7D95F
:10236000032024E0002022E0002020E0012B20D0E8
:10237000134A5368D06A03F4C031E26991421AD11A
:1023800003F47013226A934217D100F00F00636ABE
:10239000984219D100200AE001207047012006E090
:1023A000012004E0032002E0032000E0002002B04E
:1023B00070BD0120FBE70120F9E70120F7E700BF2E
:1023C00000100240007000400120F0E7174B5B68EE
:1023D00003F00C02082A01D01548704703F470116D
:1023E0004FF4701292FAA2F2B2FA82F221FA02F2D9
:1023F0001049885C0D4AD26A02F00F020F2191FA4F
:10240000A1F1B1FA81F1CA400B498A5C13F4803F13
:1024100005D0074BB3FBF2F300FB03F07047044B0E
:10242000B3FBF2F300FB03F0704700BF0010024063
:1024300000127A00C0680008D0680008002800F088
:10244000BE8070B50D460446614B1B6803F0070360
:102450008B420BD25E4A136823F007030B431360D1
:10246000136803F007038B4240F0AB80236813F03E
:10247000020F06D0574A536823F0F003A1680B43BC
:102480005360236813F0010F5AD06368012B2DD0DD
:10249000022B40D0022292FAA2F24E4A1068022287
:1024A00092FAA2F2B2FA82F202F01F02012101FABC
:1024B00002F2104200F0878046494A6822F0030287
:1024C00013434B60FFF748FC0646424B5B6803F042
:1024D0000C036268B3EB820F32D0FFF73DFC801B28
:1024E00041F288339842F0D9032067E04FF400327C
:1024F00092FAA2F2374A10684FF4003292FAA2F22E
:10250000B2FA82F202F01F02012101FA02F2024243
:10251000D2D1012052E04FF0007292FAA2F22D4A7D
:1025200010684FF0007292FAA2F2B2FA82F202F050
:102530001F02012101FA02F21042BDD101203DE04B
:10254000234B1B6803F00703AB420AD9204A1368E8
:1025500023F007032B431360136803F00703AB4218
:1025600033D1236813F0040F06D01A4A536823F4BA
:10257000E063E1680B435360236813F0080F07D052
:10258000144A536823F46053216943EAC10353603A
:10259000FFF71CFF0F4B5B6803F0F003F02292FA89
:1025A000A2F2B2FA82F2D3400B4AD35CD8400B4B72
:1025B00018600B4B1868FFF78BFB002070BD0120E3
:1025C00070470120FAE70120F8E70120F6E700BF95
:1025D0000020024000100240E06800080C000020CB
:1025E00004000020014B1868704700BF0C00002059
:1025F00008B5FFF7F7FF074B5B6803F4E0634FF4A0
:10260000E06292FAA2F2B2FA82F2D340024AD35CBA
:10261000D84008BD00100240F0680008F0B583B053
:10262000002336E0062400E00024B4403C43023599
:10263000624E46F82540624C2568D44325EA0206DE
:102640004F6817F4803F01D042EA05065C4D2E60CA
:102650006D6804EA05064F6817F4003F01D042EAAE
:102660000506574D6E60AD6804EA05064F6817F41D
:10267000801F01D042EA0506514DAE60ED682C4046
:102680004E6816F4001F01D042EA05044C4AD4609B
:1026900001330A6832FA03F400F08D8001249C4073
:1026A0002240F5D04D686E1E012E03D9112D01D0A8
:1026B000122D12D186685F000325BD4026EA05066B
:1026C000CD68BD4035438560466826EA04064D68FE
:1026D000C5F300149C4034434460C7685E00032582
:1026E000B540EC4327EA05078D68B5403D43C5601A
:1026F0004D68022D01D0122D13D1DF08083750F894
:1027000027E003F007054FEA850C0F2505FA0CF5C5
:102710002EEA050E0D6905FA0CF545EA0E0540F89E
:102720002750056825404C6804F00304B4402C434E
:1027300004604C6814F0805FAAD0224CA56945F073
:102740000105A561A46904F001040194019C9D08A0
:10275000AE1C1A4C54F8267003F00304A6000F2494
:10276000B44027EA0407B0F1904F3FF45DAF164C38
:10277000A04216D004F58064A04214D004F5806411
:10278000A04212D004F58064A04210D004F5806409
:10279000A0420ED004F58064A0423FF443AF07246A
:1027A00043E7012441E702243FE703243DE70424F3
:1027B0003BE7052439E703B0F0BD00BF000001404E
:1027C0000004014000100240000400480AB1816189
:1027D0007047816270470000074AD36823F4E063C2
:1027E0001B041B0C000200F4E060034343F0BF63D2
:1027F00043F40033D360704700ED00E030B4174B72
:10280000DB68C3F30223C3F10704042C28BF0424AC
:102810001D1D062D18D9033B4FF0FF3505FA04F4B2
:1028200021EA0401994005FA03F322EA030319435C
:1028300000280BDB0901C9B200F1604000F56140DE
:1028400080F8001330BC70470023E5E700F00F006C
:102850000901C9B2024B1954F4E700BF00ED00E0D2
:1028600014ED00E00138B0F1807F0AD2064B5860C9
:10287000064AF02182F823100020986007221A608F
:1028800070470120704700BF10E000E000ED00E05D
:102890007047704770477047704770477047704780
:1028A0007047704703689A6912F0020F01D0002246
:1028B0009A6203689A6912F0010F03D19A6942F093
:1028C00001029A61704770B4039E05686868740DD0
:1028D00004F4806444F07F7444F4583444F47F7406
:1028E00044F0030420EA0400C1F3090141EA024173
:1028F000194331430143696070BC7047F8B5054620
:102900000E46174603689B6913F0100F01D1002093
:10291000F8BD2B689C6914F0200F17D1B6F1FF3F6A
:10292000F7D0FFF719FAC01BB04201D8002EF0D142
:102930006B6C43F020036B64202385F84130002347
:1029400085F8423085F840300120E1E71022DA6155
:102950002B682024DC612846FFF7A4FF2A6853680F
:1029600023F0FF7323F48B3323F4FF7323F001036D
:1029700053606B6C43F004036B6485F841400023A3
:1029800085F8423085F840300120C1E770B5044633
:102990000D46164623689B6913F0020F1DD132467F
:1029A00029462046FFF7AAFFC8B9B5F1FF3FF1D08D
:1029B000FFF7D2F9801BA84201D8002DEAD1636C41
:1029C00043F020036364202384F84130002384F81B
:1029D000423084F84030012000E0002070BD01202A
:1029E000FCE72DE9F0410646884617461D46346847
:1029F000A46938EA04030CBF01240024BC4218D1A6
:102A0000B5F1FF3FF3D0FFF7A7F9069BC01AA84224
:102A100001D8002DEBD1736C43F0200373642023A5
:102A200086F84130002386F8423086F84030012095
:102A300000E00020BDE8F0812DE9F04182B00446BD
:102A400090461D46089E099F194B00934FF08073D6
:102A5000EAB2FFF738FF3A4631462046FFF796FFC5
:102A6000F8B9012D0ED123685FFA88F29A620097B7
:102A70003346002280212046FFF7B3FFA8B902B0F9
:102A8000BDE8F08123684FEA18229A623A4631463F
:102A90002046FFF77BFF30B923685FFA88F29A621D
:102AA000E5E70120EBE70120E9E70120E7E700BFC8
:102AB000002000802DE9F04182B0044690461D467A
:102AC000089E099F184B00930023EAB2FFF7FBFE14
:102AD0003A4631462046FFF759FFF8B9012D0ED18D
:102AE00023685FFA88F29A620097334600224021F9
:102AF0002046FFF776FFA8B902B0BDE8F081236851
:102B00004FEA18229A623A4631462046FFF73EFFC6
:102B100030B923685FFA88F29A62E5E70120EBE7B3
:102B20000120E9E70120E7E70020008070B50546B5
:102B30000C4616462B689B6913F0200F1AD13246BB
:102B400021462846FFF7DAFEB0B9FFF705F9801BEA
:102B5000A04201D8002CEDD16B6C43F020036B64D4
:102B6000202385F84130002385F8423085F8403035
:102B7000012070BD0020FCE70120FAE7002872D098
:102B800010B5044690F84130DBB980F84030374B3F
:102B9000C364374B0365374B4365374B8365374B0E
:102BA000C365374B0366374B4366374B8366374BFA
:102BB000C366374B0367436F002B46D0636F2046D5
:102BC0009847242384F841302268136823F00103D6
:102BD00013606368226823F070631361226893684E
:102BE00023F400439360E368012B31D0A36822688B
:102BF00043F404439360E368022B2FD022685368A8
:102C000043F0007343F4004353602268D36823F415
:102C10000043D360236962691343A169226843EAD0
:102C20000123D360E369216A22680B4313602268A1
:102C3000136843F00103136000206064202384F8CC
:102C40004130206384F8420010BD124B4367B5E762
:102C5000A368226843F400439360CCE723684FF4F1
:102C600000625A60CAE70120704700BF912800083F
:102C70009328000895280008972800089B2800083A
:102C80009D2800089F280008A1280008A328000804
:102C900099280008711000082DE9F04F83B00E4606
:102CA000BDF834A00E9D90F84110C9B2202940F023
:102CB000BB800446904699460C9BCBB1BAF1000FFD
:102CC00016D090F84030012B00F0B2804FF0010B8D
:102CD00080F840B0FFF740F80746009019235A46A5
:102CE0004FF400412046FFF77CFE30B101209CE00C
:102CF0004FF400736364012097E0212384F841308E
:102D0000402384F84230002363640C9A6262A4F882
:102D10002AA06363019700954B4642463146204600
:102D2000FFF78AFE70B9638D9BB2FF2B0FD9FF228C
:102D30002285002300934FF0807331462046FFF731
:102D4000C2FD21E0002384F8403058466DE0628DDA
:102D500092B22285002300934FF00073D2B2314625
:102D60002046FFF7B0FD0FE0628D92B2228500236E
:102D700000934FF00073D2B231462046FFF7A3FD17
:102D8000638D9BB2002B33D03A4629462046FFF78D
:102D9000FDFD00284ED1626A236812789A62636A48
:102DA00001336362638D9BB2013B9BB26385238DCC
:102DB000013B9BB22385628D92B2002AE0D0002BAA
:102DC000DED100972B46002280212046FFF709FE26
:102DD00090BB638D9BB2FF2BC6D9FF2222850023B7
:102DE00000934FF0807331462046FFF76CFDC7E734
:102DF0003A4629462046FFF799FEF8B92368202273
:102E0000DA6121684B6823F0FF7323F48B3323F4DA
:102E1000FF7323F001034B6084F84120002384F802
:102E2000423084F8403000E0022003B0BDE8F08F6B
:102E30000220FAE70120F8E70120F6E70120F4E795
:102E40002DE9F04F83B00E46BDF834A00E9D90F8EA
:102E50004110C9B2202940F0BC80044690469946F2
:102E60000C9BCBB1BAF1000F16D090F84030012B7B
:102E700000F0B3804FF0010B80F840B0FEF76CFF1C
:102E80000746009019235A464FF400412046FFF7A9
:102E9000A8FD30B101209DE04FF400736364012070
:102EA00098E0222384F84130402384F84230002304
:102EB00063640C9A6262A4F82AA063630197009588
:102EC0004B46424631462046FFF7F4FD70B9638D0C
:102ED0009BB2FF2B0FD9FF222285444B00934FF06A
:102EE000807331462046FFF7EEFC21E0002384F892
:102EF000403058466EE0628D92B222853B4B009383
:102F00004FF00073D2B231462046FFF7DCFC0FE0F1
:102F1000628D92B22285002300934FF00073D2B2EB
:102F200031462046FFF7CFFC638D9BB2002B34D097
:102F300000972B46002204212046FFF752FD00286F
:102F40004DD123685A6A636A1A70636A01336362F7
:102F5000228D013A92B22285638D9BB2013B9BB2D6
:102F60006385638D9BB2002BDED0002ADCD10097F5
:102F70002B4680212046FFF734FD90BB638D9BB22A
:102F8000FF2BC5D9FF222285002300934FF08073C9
:102F900031462046FFF797FCC6E73A4629462046C9
:102FA000FFF7C4FDF8B923682022DA6121684B6875
:102FB00023F0FF7323F48B3323F4FF7323F0010317
:102FC0004B6084F84120002384F8423084F840307C
:102FD00000E0022003B0BDE8F08F0220FAE70120F4
:102FE000F8E70120F6E70120F4E700BF00240080A5
:102FF0002DE9F04385B01D460023039390F841303E
:10300000DBB2202B40F09E8006468946904603683E
:103010009B6913F4004F40F0978090F84030012BEB
:1030200000F09480012380F84030242380F8413060
:103030000023436444E0C9F3090343F0007343F4FD
:10304000005344E033689C69C4F340149B69C3F3A4
:103050000013C4B9BBB9B5F1FF3FF3D0FEF77CFE56
:10306000C01BA84201D8002DECD1202386F84130A6
:10307000736C43F020037364002386F84030012012
:1030800005B0BDE8F08333689B6913F0100F2BD0B7
:1030900000972B46002220213046FFF7A2FC002893
:1030A00058D133681022DA6133682022DA61039B39
:1030B00043452AD0039B01330393039B434535D2F9
:1030C000F368012BB7D0C9F3090343F420533268E6
:1030D0005360FEF741FE074633689C69C4F3401411
:1030E0009B69C3F30013B4E700972B46002220210D
:1030F0003046FFF776FC58BB32682023D36186F850
:103100004130002386F84030BAE73268536843F410
:103110008043536000972B46002220213046FFF762
:1031200060FCC8B933682022DA61C3E7202386F83F
:103130004130736C43F020037364002386F8403001
:1031400001209DE702209BE7022099E7022097E7F4
:10315000012095E7012093E7012091E790F84130A5
:10316000DBB2202B24D190F84030012B22D0012358
:1031700080F84030242380F841300268136823F03F
:10318000010313600268136823F48053136002681C
:103190001368194311600268136843F00103136058
:1031A000202380F84130002380F8403018467047D3
:1031B000022070470220704790F84130DBB2202B8C
:1031C00022D190F84030012B20D0012380F84030EC
:1031D000242380F841300268136823F00103136050
:1031E0000268136823F4706343EA012111600268E6
:1031F000136843F001031360202380F8413000235B
:1032000080F840301846704702207047022070470F
:1032100086B02D4B1B68B3F1904F19D02B4A9342C7
:1032200025D02B4A93422DD02A4A934235D02A4AA0
:1032300093423DD0294A934217D1294B5A6942F40F
:1032400080025A615B6903F480030593059B0CE0DF
:1032500003F1784303F504335A6942F400325A61AA
:103260005B6903F400330093009B06B070471C4B6E
:103270005A6942F480225A615B6903F48023019306
:10328000019BF2E7164B5A6942F400225A615B69CE
:1032900003F400230293029BE7E7114B5A6942F4BF
:1032A00080125A615B6903F480130393039BDCE78C
:1032B0000B4B5A6942F400125A615B6903F4001324
:1032C0000493049BD1E700BFC4030020000400481E
:1032D00000080048000C0048001000480014004896
:1032E0000010024010B4044C20706170A270E370B2
:1032F0005DF8044B704700BFBC03002038B50D4D8E
:103300000D4C002229882068FFF760FA0120FEF7A3
:1033100029FD012229882068FFF758FA0120FEF7CD
:1033200021FD002229882068FFF750FA0120FEF7CE
:1033300019FD38BDDE030020C403002038B5054662
:1033400000240BE045FA04F202F00102064B33F8C8
:103350001410064B1868FFF739FA0134032CF1DD1D
:10336000FFF7CCFF38BD00BFCC030020C403002012
:1033700038B5054600240BE045FA04F202F00102DC
:10338000064B33F81410064B1868FFF71FFA013488
:10339000072CF1DDFFF7B2FF38BD00BFCC030020E2
:1033A000C403002010B504460A46104B1988104B80
:1033B0001868FFF70BFA0F4B1988FF2908D10E4B3D
:1033C0001B7813F0100F09D02046FFF7D1FF10BD76
:1033D0000022074B1868FFF7F9F9F0E72009FFF71B
:1033E000ADFF2046FFF7AAFFF1E700BFE003002092
:1033F000C4030020C0030020DD03002008B5002125
:103400000120FFF7CFFF0220FEF7ACFC08BD000053
:1034100008B5032900D90321084B1B788B4201D83A
:10342000591EC9B2064B5B5C184440B260F07F0085
:103430000021C0B2FFF7B6FF08BD00BFC9030020DE
:10344000BC03002008B5054B187840F00400187044
:10345000002140F00800FFF7A5FF08BDC8030020C9
:10346000F0B587B002460C46012904D95F490B78B4
:1034700043F008030B705E4B1C7002F140034021C7
:103480000020FFF72FFF5B4B1B780BB1012C65D0A1
:10349000FFF7BEFE0323049301230293564B1B78D0
:1034A000002B61D055490D884C888888CB88544AB8
:1034B0001288544909880A43534909880A432A4310
:1034C0002243024313439BB20193504C01A920684D
:1034D000FFF7A4F83220FEF745FC0022484B19887C
:1034E0002068FFF773F90022474B19882068FFF71F
:1034F0006DF9444B1988FF295AD13C4B187810F0CC
:10350000100F5AD10320FFF719FF0520FEF72AFC00
:103510000320FFF713FF0520FEF724FC0320FFF72D
:103520000DFF0120FEF71EFC0220FFF707FF2F4BC7
:103530001878002140F02000FFF734FF344B0422BC
:103540001A70FFF77FFFFFF759FF324B02221A7004
:1035500000210620FFF726FF07B0F0BD234A1378AD
:1035600043F00403137093E7244BB3F800C05F8863
:103570009E88DD881C8958899989DB89204A1288B0
:10358000DFF880E0BEF800E042EA0E02DFF878E003
:10359000BEF800E042EA0E024CEA02023A4332432D
:1035A0002A43224302430A4313439BB201938CE70D
:1035B00000222068FFF70AF99FE7002140F0200071
:1035C000FFF7F0FE0520FEF7CDFB084C2078002128
:1035D00040F02000FFF7E6FE0120FEF7C3FB207855
:1035E000002140F02000FFF7DDFEA0E7DD03002012
:1035F000C90300209400002008000020CC03002014
:10360000E0030020C0030020DE030020C4030020EC
:10361000C8030020DC03002010B5184C2280184A93
:103620001380BDF80820174B1A80174B1960174BF1
:10363000BDF80C201A80BDF810205A80BDF8142067
:103640009A80BDF81820DA80BDF81C201A81BDF8D8
:1036500020205A81BDF824209A81BDF82820DA81E3
:1036600038B10B4B00221A7002211020FFF7F8FE30
:1036700010BD074B10221A70F6E700BFE0030020D0
:10368000C0030020DE030020C4030020CC03002080
:10369000DD030020F0B58BB00446BDF84050BDF806
:1036A0004460BDF84870BDF84CC01348007890B134
:1036B00000200890079006900590CDF810C0039761
:1036C00002960195009313460A4621460120FFF712
:1036D000A3FF0BB0F0BD0020089007900690059066
:1036E000CDF810C0039702960195009313460A4641
:1036F0002146FFF791FFECE70800002070B580B18C
:103700000446FCF76DFD002506E0012114F8010BCD
:10371000FFF748FE01353046461E0028F5D1284601
:1037200070BD0025FBE700002DE9F04186B04FF4A5
:103730007A730293012301930DF11702009275220F
:10374000D0211A48FFF77CFB9DF81730682B02D078
:1037500006B0BDE8F0814FF000088DF81680134DDB
:103760004FF47A770297012401940DF11606009622
:1037700023466B22D0212846FFF78EFA07238DF8C7
:10378000163002970194009623461922D02128462C
:10379000FFF782FA8DF8168002970194009623466F
:1037A0001B22D0212846FFF777FAD1E7A40000209A
:1037B00000B587B04FF47A731422D0211648FFF772
:1037C00017FC10B107B05DF804FB4FF47A73029355
:1037D0000223019305AB009301234322D0210E481D
:1037E000FFF72EFB9DF814309DF8150040EA0320EA
:1037F00000B20A4B1880FCF79DFE05A3D3E9002315
:10380000FDF72CF8FDF7D8F9054B1860DAE700BF93
:103810000000000000606040A4000020740300204D
:1038200020010020000000002DE9F8430546B5EE18
:10383000C00AF1EE10FA2ED4DFED457A60EE277A59
:10384000FDEEE77A17EE903A424A82FB0312DF1749
:10385000C7EB6217642202FB1737FDEEC07A17EE42
:10386000906A00242046FCF765FE41EC110B9FEDA9
:10387000360B01F079F859EC108B3046FCF75AFE04
:1038800042464B46FCF7EAFF0022334BFDF742F974
:10389000E0B10134E6E7DFED317A60EE277AFDEE44
:1038A000E77A17EE903A2B4A82FB0312DF17C7EB39
:1038B0006217642202FB1737B1EE400AFDEEC07AB0
:1038C00017EE906A2D2305F8013BCAE7013C1CE086
:1038D0002046FCF72FFE41EC110B9FED1B0B01F076
:1038E00043F851EC100BFDF73FF996FBF0F01C4A42
:1038F00082FB0032C317C3EBA20303EB8303A0EBED
:103900004303303305F8013B013C002CE0DA2E2361
:103910002B70134B83FB0721FA17C2EBA10283FB29
:103920000231D317C3EBA10303EB8303A2EB4303E1
:1039300030336B7002EB8202A7EB42023032AA7086
:103940000023EB70BDE8F883000000000000244075
:103950000000C8421F85EB510000F03F0000C8C2C4
:1039600067666666054BD3F8882042F47002C3F898
:1039700088204FF000629A60704700BF00ED00E0C1
:10398000DFF834D0002103E00C4B5B584350043186
:103990000B480C4B42189A42F6D30B4A02E0002324
:1039A00042F8043B094B9A42F9D3FFF7DBFF00F0E2
:1039B00011F8FDF71DFAFEE700000120B0690008CC
:1039C000000000207800002078000020F003002094
:1039D000FEE7000070B50D4D0D4C641BA4100026D1
:1039E000A64209D10B4D0C4C02F054FF641BA410ED
:1039F0000026A64205D170BD55F8043B9847013614
:103A0000EEE755F8043B98470136F2E7A86900084D
:103A1000A8690008A8690008AC69000802440346C8
:103A2000934200D1704703F8011BF9E70FB40A4B2A
:103A300013B51C6824B1A36913B9204600F066F8D9
:103A400005AB049AA1680193204600F083F902B007
:103A5000BDE8104004B0704710000020002310B5EE
:103A60000446C0E90033C0E90433836081814366C2
:103A7000C2818361194608225C30FFF7CFFF054BF6
:103A80006362054BA362054BE362054B246223632B
:103A900010BD00BFFD4200081F4300085743000847
:103AA0007B430008014900F0AFB800BF554600084D
:103AB00070B54A1E682555430E4605F1740100F0A5
:103AC000C5F8044640B10021C0E900160C30A060E2
:103AD00005F16802FFF7A2FF204670BD014800F023
:103AE000B3B800BFEB030020014800F0AEB800BF40
:103AF000EB030020014800F0A7B800BFE603002058
:103B0000014800F0A2B800BFE603002010B504464B
:103B1000FFF7F0FFA3691BB1BDE81040FFF7F0BF4E
:103B2000C4E912332365134B134A1B68A262A342F4
:103B300004BF0123A361204600F020F86060204606
:103B400000F01CF8A060204600F018F80022E060A9
:103B500004216068FFF782FFA06801220921FFF7B6
:103B60007DFFE06802221221FFF778FF0123A361A5
:103B7000D2E700BFF8680008A53A0008F8B5074684
:103B8000FFF7ACFF1E4B1E68B36913B93046FFF751
:103B9000BDFF4836D6E90134013B03D533680BB38A
:103BA0003668F7E7B4F90C50D5B9164BE36004F169
:103BB0005800656600F047F8FFF796FFC4E9015525
:103BC000C4E904552560A5610822294604F15C007A
:103BD000FFF724FFC4E90D55C4E912552046F8BD8E
:103BE0006834D9E704213846FFF762FF04463060A5
:103BF0000028D5D1FFF778FF0C233B60EEE700BF2C
:103C0000F86800080100FFFF2DE9F84306468846E2
:103C100000F148040027D4E90195B9F1010905D55F
:103C20002468002CF7D13846BDE8F883AB89012B16
:103C300007D9B5F90E30013303D029463046C047C5
:103C400007436835E9E7704770477047F8B5CD1C02
:103C500025F0030508350C2D38BF0C25002D064630
:103C600001DBA94203D90C2333600020F8BD00F02A
:103C7000A3FD21490A6814469CB9204F3B6823B92B
:103C80002146304600F02AFB38602946304600F0D5
:103C900025FB431C23D10C233360304600F092FDFA
:103CA000E3E723685B1B17D40B2B03D923601C4469
:103CB000256004E06368A2420CBF0B60536030468D
:103CC00000F080FD04F10B00231D20F00700C21A54
:103CD000CCD01B1AA350C9E722466468CCE7C41CA9
:103CE00024F00304A042E3D0211A304600F0F6FA93
:103CF0000130DDD1CFE700BF980000209C000020FC
:103D00009368013B002B10B4936008DA9469A342D6
:103D100001DB0A2903D15DF8044B00F033BB1368C3
:103D2000581C1060197008465DF8044B7047F8B5D0
:103D300006460F461446D518AC4201D1002007E0D4
:103D400014F8011B3A463046FFF7DAFF431CF3D163
:103D5000F8BD00002DE9F04F0D469DB01446984681
:103D6000064618B183690BB9FFF7D0FE894B9D4217
:103D70001BD175686B6ED90705D4AB899A0502D43F
:103D8000A86DFFF761FFAB891B0701D52B69EBB964
:103D90002946304600F05AFBC0B16B6EDC070ED5E9
:103DA0004FF0FF301DB0BDE8F08F7B4B9D4201D13D
:103DB000B568DFE7794B9D4208BFF568DAE7AB8964
:103DC0009805EDD4A86DFFF740FFE9E700230993BC
:103DD00020238DF82930CDF80C803023DFF8C08106
:103DE0008DF82A304FF0010923469A4613F8012B2B
:103DF0000AB1252AF9D1BAEB040B0BD05B46224657
:103E000029463046FFF793FF013000F0AA80099A57
:103E10005A4409929AF80030002B00F0A280002347
:103E20004FF0FF32CDE905230AF1010A049307930D
:103E30008DF853301A935446052214F8011B584844
:103E4000FCF7D6F9049AD8B9D10644BF20238DF8DF
:103E50005330130744BF2B238DF853309AF80030AA
:103E60002A2B15D0079A544600204FF00A0C214601
:103E700011F8013B303B092B4ED9B0B1079214E049
:103E8000A0EB080309FA03F313430493A246D2E715
:103E9000039B191D1B680391002BBBBF5B4242F0C3
:103EA000020207930793B8BF049223782E2B0CD1FC
:103EB00063782A2B35D1039B1A1D1B680392002BB4
:103EC000B8BF4FF0FF3302340593DFF8E4A0217848
:103ED00003225046FCF78CF940B14023A0EB0A00C6
:103EE00003FA00F0049B03430134049314F8011B0C
:103EF0002C488DF828100622FCF77AF900283FD0CC
:103F0000294B1BBB039B073323F0070308330393A1
:103F1000099B3B44099367E70CFB02320C460120E6
:103F2000A5E700230134059319464FF00A0C2046FB
:103F300010F8012B303A092A03D9002BC5D005917E
:103F4000C3E70CFB012104460123F0E703AB009318
:103F50002A46164B04A93046AFF300800746781C6A
:103F6000D6D16B6ED90705D4AB899A0502D4A86D5A
:103F7000FFF76BFEAB895B063FF512AF099811E7BF
:103F800003AB00932A46094B04A9304600F080F8A1
:103F9000E4E700BF1C6900083C690008FC680008F1
:103FA0005C69000866690008000000002F3D0008F9
:103FB000626900082DE9F047164699468A680B6940
:103FC000DDF820809342B8BF1346336091F8432058
:103FD00007460C460AB1013333602368990642BF95
:103FE000336802333360256815F0060506D104F105
:103FF000190AE36832689B1AAB4226DC94F8432026
:10400000131E226818BF012392062BD404F1430229
:1040100049463846C04701301ED02368E5683268FB
:1040200003F00603042B08BFAD1AA36822690CBF76
:1040300025EAE57500259342C4BF9B1AED180026BA
:104040001A34B5421AD1002008E0012352464946ED
:104050003846C047013003D14FF0FF30BDE8F0874C
:104060000135C6E7E1185A1C302081F8430022448C
:1040700094F8451082F843100233C7E70123224623
:1040800049463846C0470130E6D00136D9E700003E
:104090002DE9FF470C469146277E0C99782F8046E4
:1040A0009A4604F1430207D8622F0AD8002F00F085
:1040B000D880582F00F0A38004F1420684F84270A3
:1040C0003AE0A7F16303152BF6D801A050F823F0CE
:1040D000294100083D410008B9400008B9400008E6
:1040E000B9400008B94000083D410008B940000847
:1040F000B9400008B9400008B9400008494200082A
:104100006D4100082B420008B9400008B940000882
:104110006B420008B94000086D410008B940000832
:10412000B9400008334200080B681A1D1B680A607A
:1041300004F1420684F842300123A3E025680868B0
:104140002E0600F104030AD505680B60002D03DA82
:104150002D236D4284F843305E480A2319E015F0A0
:10416000400F05680B6018BF2DB2EFE70B6825689C
:10417000181D0860280601D51D6802E06906FBD5F8
:104180001D8854486F2F0CBF08230A23002184F890
:1041900043106668A660002EA2BF216821F00401CA
:1041A00021600DB9002E4DD01646B5FBF3F103FB8F
:1041B0001157C75D06F8017D2F46BB420D46F4D965
:1041C000082B0BD12368DF0708D523696168994262
:1041D000DEBF302306F8013C06F1FF36921B226158
:1041E000CDF800A04B4603AA21464046FFF7E2FE69
:1041F00001304CD14FF0FF3004B0BDE8F0873548B6
:1042000084F8457023680E681F0656F8045B0E603C
:1042100014D5D90744BF43F0200323601DB9236898
:1042200023F0200323601023B0E7236843F020032A
:1042300023607823284884F84530E3E75E0648BFCA
:10424000ADB2E6E71646BBE70B68266860691D1D40
:104250000D6035061B6801D5186002E07106FBD5BC
:104260001880002323611646BAE70B681A1D0A60FE
:104270001E68626800213046FBF7BAFF08B1801B58
:10428000606063682361002384F84330A8E72369F2
:10429000324649464046D0470130ABD023689B07A1
:1042A00013D4E068039B9842B8BF1846A4E70123E3
:1042B000324649464046D04701309BD00135E3683D
:1042C00003995B1AAB42F2DCEBE7002504F1190617
:1042D000F5E700BF6D6900087E69000838B5064D36
:1042E0000023044608462B6002F0B8FA431C02D1B2
:1042F0002B6803B1236038BDEC03002010B50C46D9
:10430000B1F90E1000F0B4FA0028ABBF636DA389B9
:104310001B1823F48053ACBF6365A38110BD2DE946
:10432000F0411F468B89DB0505460C46164605D530
:10433000B1F90E100223002200F0C8F9A389B4F9E4
:104340000E1023F48053A38132463B462846BDE835
:10435000F04100F069B810B50C46B1F90E1000F04C
:10436000B5F9431CA38915BF606523F4805343F45A
:104370008053A38118BFA38110BDB1F90E1000F0C6
:10438000D3B80000F8B50E461446054618B1836947
:104390000BB9FFF7BBFB214B9C422BD16C68A36987
:1043A000A360A3891A072FD523696BB323692068FB
:1043B000C01A6369F6B28342374604DC21462846B8
:1043C00000F048F930BBA368013BA36023685A1C86
:1043D00022601E7063690130834204D0A389DB0729
:1043E00006D50A2E04D12146284600F033F988B9B3
:1043F0003846F8BD0A4B9C4201D1AC68CFE7094B67
:104400009C4208BFEC68CAE72146284600F01EF827
:104410000028CBD04FF0FF37EAE700BF1C69000847
:104420003C690008FC68000838B5074D044608469A
:10443000114600222A601A4602F01EFA431C02D1DD
:104440002B6803B1236038BDEC030020324B70B5FC
:104450001D6806460C4625B1AB6913B92846FFF71F
:1044600055FB2E4B9C420FD16C68A389B4F90C20EC
:1044700019072CD4DD0611D40923336042F0400320
:10448000A3814FF0FF303EE0254B9C4201D1AC6848
:10449000EBE7244B9C4208BFEC68E6E7580712D5CF
:1044A000616B41B104F14403994202D0304600F0FF
:1044B0008FF900236363A38923F02403A3810023DE
:1044C000636023692360A38943F00803A381236900
:1044D0004BB9A38903F42073B3F5007F03D02146C1
:1044E000304600F029F9A089B4F90C2010F001033E
:1044F0000AD00023A36063695B42A361236943B9C7
:1045000010F08000BAD170BD810758BF6369A36005
:10451000F4E70020F7E700BF100000201C69000846
:104520003C690008FC68000838B5064D00230446C5
:1045300008462B6002F06AF9431C02D12B6803B1D4
:10454000236038BDEC0300208A892DE9F04105463F
:1045500010070C4658D44B68002B05DC0B6C002B65
:1045600002DC0020BDE8F081E66A002EF9D00023CD
:1045700012F480522F682B6032D0606DA3895A07E5
:1045800005D56368C01A636B0BB1236CC01A002396
:104590000246E66A216A2846B047431CA38906D131
:1045A00029681D292CD82A4ACA40D60728D50022B6
:1045B0006260D9042269226004D5421C01D12B68B3
:1045C00003B96065616B2F600029CAD004F1440310
:1045D000994202D0284600F0FBF800206063C1E752
:1045E000216A01232846B047411CC7D12B68002B04
:1045F000C4D01D2B01D0162B01D12F60B1E7A389A8
:1046000043F04003A381ADE70F69002FA9D09307C2
:104610000E6808BF4B690F6018BF0023A6EB0708A0
:104620008B60B8F1000F9CDD216AA66A43463A46CA
:104630002846B047002806DCA38943F04003A38145
:104640004FF0FF308EE70744A8EB0008E9E700BF12
:104650000100402038B50B6905460C4613B900250A
:10466000284638BD18B183690BB9FFF74FFA144BD0
:104670009C421BD16C68B4F90C30002BEFD0626EF9
:10468000D00704D4990502D4A06DFFF7DDFA2846BF
:104690002146FFF759FF636EDA070546E0D4A38988
:1046A0009B05DDD4A06DFFF7D0FAD9E7054B9C42FE
:1046B00001D1AC68DFE7044B9C4208BFEC68DAE745
:1046C0001C6900083C690008FC68000838B5074D03
:1046D00004460846114600222A601A4602F0AEF847
:1046E000431C02D12B6803B1236038BDEC030020CA
:1046F00070B50E46B1F90E10002996B014461D464D
:1047000007DA00232B60B3891A0610D44FF48063B4
:104710000EE06A4600F0BEF80028F2DB019A02F4CF
:104720007042A2F500535A425A412A60EEE74023F4
:104730000020236016B070BD8B8973B59D070646B7
:104740000C4607D504F1470323602361012363610D
:1047500002B070BD01AB6A46FFF7CAFF009905467B
:104760003046FFF773FA48B9B4F90C309A05EFD424
:1047700023F0030343F00203A381E3E70D4BB3628D
:10478000A389206043F08003A381009B6361019BA8
:1047900020615BB1B4F90E10304600F08DF828B1FD
:1047A000A38923F0030343F00103A381A0890543F8
:1047B000A581CDE7A53A00080148FFF745BA00BF3B
:1047C000E70300200148FFF740BA00BFE7030020DD
:1047D00037B5002948D051F8043C0190002BA1F1D5
:1047E0000404B8BFE418FFF7E7FF204A01981368F4
:1047F000154633B96360146003B0BDE83040FFF77D
:10480000E1BFA3420BD921686218934204BF1A6822
:104810005B68636004BF521822602C60ECE71A46A4
:104820005B680BB1A342FAD911685518A5420BD1A8
:10483000246821445418A3421160DDD11C685B68D0
:10484000536021441160D7E702D90C230360D3E7FA
:10485000256861198B4204BF19685B68636004BFF7
:10486000491921605460C7E703B030BD98000020AB
:1048700038B5074D04460846114600222A601A46FC
:1048800001F0E4FF431C02D12B6803B1236038BD63
:10489000EC03002038B5074D0023044608461146B6
:1048A0002B6001F0BBFF431C02D12B6803B12360D6
:1048B00038BD00BFEC03002038B5064D0023044688
:1048C00008462B6001F0B2FF431C02D12B6803B1F4
:1048D000236038BDEC03002038B52DED028B55EC7C
:1048E000104B00F0B5F91E4BB0EE408AF0EE608A36
:1048F00093F9003001331AD022462B462046294630
:10490000FCF71CF998B90022002320462946FCF741
:104910000BF960B92046294600220023FCF7DCF899
:1049200060B101F0B1FF9FED0C8B22230360B0EE6C
:10493000480AF0EE680ABDEC028B38BD01F0A4FF16
:10494000BDEC028B21230360BDE83840054801F02F
:1049500043BD00BFAFF30080000000000000F0FF87
:1049600074000020BC680008F8B52DED028B57ECF0
:10497000106B55EC114B00F077FB634BB0EE408AA7
:10498000F0EE608A93F9003001332AD022462B469C
:1049900020462946FCF7D2F818BB32463B46304643
:1049A0003946FCF7CBF8002844D1002200233046DA
:1049B0003946FCF791F8D8B1002200232046294659
:1049C000FCF78AF800283DD145EC104B01F0F8FCCB
:1049D00038B12046294600220023FCF787F800283A
:1049E0005CD1B0EE480AF0EE680ABDEC028BF8BD6F
:1049F000B0EE480AF0EE680A01F0E2FC58B351EC60
:104A0000180B00220023FCF767F80028E9D047ECD8
:104A1000106B01F0D5FC0028E3D045EC104B01F001
:104A2000CFFC0028DDD001F02FFF22239FED2E8B3D
:104A30000360D6E72046294600220023FCF74CF805
:104A40000028CED09FED2A8BB0EE480AF0EE680A1F
:104A5000BDEC028BF8BD47EC106B01F0B1FC0028F7
:104A6000CDD045EC104B01F0ABFC0028C7D053EC87
:104A7000182B18EE100A1946FCF760F820BB01F05D
:104A800003FF034622221A603046394600220023E3
:104A9000FCF72CF848B99FED188BA2E701F0F4FE63
:104AA00021239FED178B03609BE745EC104B01F032
:104AB0009BFC224651EC100B2B46FCF70DF800280E
:104AC000E9D19FED0F8B8CE701F0DEFE0022002381
:104AD0002121016010461946FBF7C0FE41EC180B7E
:104AE0007FE700BFAFF3008000000000000000007F
:104AF000000000000000F03F000000000000F07F18
:104B0000000000000000F0FF7400002008B52DED4B
:104B1000048BF0EE408AB0EE608A01F043F9474B17
:104B200093F900300133B0EE409A1FD0B4EE488ABA
:104B3000F1EE10FA1AD6F4EE688AF1EE10FA59D6B0
:104B4000DFED3F9AF4EE698AF1EE10FA13D1B4EE7C
:104B5000698AF1EE10FA29D0B0EE480A01F072FD30
:104B600020B1B4EEE98AF1EE10FA4DD4B0EE490A64
:104B7000BDEC048B08BD01F065FDF0B1B5EE409AC7
:104B8000F1EE10FAF2D1B0EE680A01F05BFD0028F8
:104B9000ECD0B0EE480A01F055FD0028E6D001F057
:104BA00073FE22239FED269A0360DFE7B7EE009A9B
:104BB000B0EE490ABDEC048B08BDB0EE680A01F006
:104BC00041FD0028DAD0B0EE480A01F03BFD002894
:104BD000D4D0B4EE499AF1EE10FA28D601F054FE82
:104BE000F5EEC08A2223F1EE10FA036013D49FED94
:104BF000159ABBE7B5EE408AF1EE10FAF7EE007AAF
:104C000008BFB0EE679AB1E701F03EFE21239FEDA9
:104C10000E9A0360AAE7B0EE480A01F027FDB4EE51
:104C2000480AF1EE10FAE2D09FED079A9EE701F0F4
:104C30002BFE212389EEA99A036097E774000020D8
:104C4000000000000000807F000080FF00000000E6
:104C50002DE9F04F51EC100B2DED028BB1F5801FBB
:104C600083B00B4657DA21F00042024300F0FE8089
:104C70000029C0F23E81E44B0022FBF7C5FCE34A69
:104C80000B4693426FF035074ADCC3F3130505F575
:104C9000152606F6647606F4801686F07F5282F4B6
:104CA000401242EA05011C150022D94BFBF7F4FA29
:104CB000AB1CA4F2FF34C3F313033C44022B04EBFC
:104CC000165482468B464FF0000234DC0023FBF77B
:104CD00003FF002800F0D780002C00F066812046FA
:104CE000FBF728FCB2A3D3E9002306460F46FBF7E7
:104CF0008BFCB1A3D3E9002304460D463046394668
:104D0000FBF782FC02460B4620462946FBF7C6FA13
:104D100041EC100B0AE0BD4A93424FF00007B4DDAE
:104D200002460B46FBF7BAFA41EC100B03B0BDECA0
:104D3000028BBDE8F08F4FF08043FBF7AFFA0246DD
:104D40000B4650465946FBF789FD02460B46204666
:104D500043EC182BFBF7EEFB53EC182B06460F46E3
:104D600051EC180BCDE90067FBF74EFC02460B46F1
:104D700080468946FBF748FC91A3D3E90023064609
:104D80000F46FBF741FC90A3D3E90023FBF786FA1B
:104D900032463B46FBF738FC8DA3D3E90023FBF7F3
:104DA0007DFA32463B46FBF72FFC8BA3D3E9002369
:104DB000FBF774FA42464B46FBF726FC88A3D3E97F
:104DC00000238046894630463946FBF71DFC86A302
:104DD000D3E90023FBF762FA32463B46FBF714FCAB
:104DE00083A3D3E90023FBF759FA32463B46FBF78E
:104DF0000BFC0B46024649464046FBF74FFAA5F529
:104E0000C223C5F5D725A3F27A4351351D43002DA2
:104E100006460F465FDD7F4B002250465946FBF7A2
:104E2000F3FB52465B46FBF7EFFB80468946002CBE
:104E30006AD142464B4630463946FBF72FFA53ECCF
:104E4000182BFBF7E1FB02460B4640464946FBF7B1
:104E500023FA02460B4650465946FBF71DFA41EC31
:104E6000100B03B0BDEC028BBDE8F08F00220023D5
:104E700069490020FBF7F2FC41EC100B03B0BDECDC
:104E8000028BBDE8F08F5CA3D3E90023504659465E
:104E9000FBF7BAFB02460B4600205E49FBF7FCF924
:104EA000524606460F465B4650465946FBF7ACFB5A
:104EB00002460B4630463946FBF7A6FB06460F4630
:104EC000002C5AD102460B4650465946FBF7E4F9EE
:104ED00041EC100B2AE7002C40F0A08002460B4664
:104EE00050465946FBF7D8F953EC182BFBF78CFBCF
:104EF000AFE710EE102AFBF7CFF900220023FBF7F3
:104F0000ADFC41EC100B11E729A3D3E90023DDE947
:104F10000001FBF779FB42464B4604460D463046FE
:104F20003946FBF7BBF953EC182BFBF76DFB22A3BB
:104F3000D3E9002306460F46DDE90001FBF764FBD9
:104F400002460B4630463946FBF7A8F902460B46A7
:104F500040464946FBF7A0F952465B46FBF79CF9F1
:104F600002460B4620462946FBF796F941EC100B0A
:104F700003B0BDEC028BBDE8F08F2046FBF7DAFAF8
:104F80000BA3D3E9002380468946FBF73DFB0AA328
:104F9000D3E9002304460D4640464946FBF734FB5F
:104FA00002460B4630463946D4E79FED150BBDE669
:104FB0000000E0FE422EE63F763C7935EF39EA3DCF
:104FC00044523EDF12F1C23FDE03CB966446C73F38
:104FD000599322942449D23F935555555555E53F51
:104FE0009FC678D0099AC33FAF788E1DC571CC3F5C
:104FF00004FA97999999D93F555555555555D53F27
:10500000000000000000000000005043FFFFEF7FA1
:105010000000F03F0000E03F000050C3DDE90089E0
:105020000DA3D3E9002340464946FBF7EDFA32468B
:105030003B4604460D4650465946FBF72DF953ECC6
:10504000182BFBF7E1FA06A3D3E9002306460F4627
:10505000A2E700BFAFF300800000E0FE422EE63F73
:10506000763C7935EF39EA3D2DE9F04F57EC116B7D
:105070002DED0A8B27F0004A5AEA060289B03DD08E
:1050800055EC104B764925F00048884510EE102A63
:10509000A9462CDC11EE103ABB463AD08A4526DCF4
:1050A0006F498A4521D0B9F1000F3DDB0021039102
:1050B000002B55D16A4B9A4500F0A880694B9A4560
:1050C00000F0B680BBF1804F00F00185664B9B4538
:1050D00046D1B9F1000F43DB45EC104B09B0BDECF4
:1050E0000A8BBDE8F04F00F099BD002BDBD008F132
:1050F000404808F5801858EA02030DD19FED547B13
:105100008DED007B9DED000B09B0BDEC0A8BBDE879
:10511000F08F0CB9C245C3DD544809B0BDEC0A8B11
:10512000BDE8F04F01F058B951498A4500F3878036
:10513000A1F154718A450FDD4FEA2A51A1F2FF31E6
:10514000142940F3CE84C1F1340123FA01F000FAAE
:1051500001F1994200F0208500210391002BADD090
:1051600045EC104B069201F021F9069A8DED000BEB
:105170005ABBB8F1000F04D03A4B29F040429A4292
:1051800023D1BBF1000F07DADDE900233549002008
:10519000FBF764FBCDE90001B9F1000FB2DA039B24
:1051A00008F1404808F5801858EA030340F0BE842F
:1051B000DDE9002310461946FBF76EF802460B4660
:1051C000FBF74CFBCDE900019CE7039A4FEAD9734A
:1051D000013B0693134335D0264B9A454EDD03F130
:1051E00004739A45244B40F3ED83984540F36B8359
:1051F000BBF1000F40F36B8317A3D3E900231046E4
:105200001946FBF701FACDE900017BE708F14043BD
:1052100003F5801313433FF471AF174B984540F3E8
:105220008883BBF1000FC0F25283CDE9006769E7C4
:10523000BBF1000FC0F24184CDE9004562E70221D5
:10524000039135E722462B46B4E700BFAFF3008059
:10525000000000000000F03F9C7500883CE4377EB1
:105260000000F07F0000F03F0000E03FBC68000855
:10527000FFFF3F430000E041FFFFEF3FE44B09EA3F
:105280000303002B40F01684DDE90001E14B00220E
:10529000FBF7BAF9CDE90001DDF804806FF03400C6
:1052A0004FEA2853DC49C8F31302A3F2FF3342F05C
:1052B0007F5818188A42079048F4401840F3E98351
:1052C000D64B9A4240F33E849FEDBB7BB0EE47BA8B
:1052D000F0EE67BAB0EE47CAF0EE67CA9FEDB87B52
:1052E000013054EC173B0790A8F580184FF00009E7
:1052F000DDE900AB44EC183B1A46504623464146D4
:10530000FAF7CAFF53EC182B04460D4650464146A7
:10531000FAF7C4FF02460B460020C149FBF79EFA8C
:1053200045EC1A4B41EC190B51EC1A0B53EC192BB1
:10533000FBF76AF9C3464FEA680848F0005808F5D9
:10534000002303EB09050A4600230146CDE90012BC
:105350000093DDE900890024CDE904122B462246A2
:1053600040464946FBF750F902460B4651EC1A0BF2
:10537000FAF792FF41EC170B53EC182B2046294605
:1053800055EC174BFAF788FF02460B465046594634
:10539000FAF782FF42464B46FBF736F902460B46C8
:1053A00020462946FAF778FF53EC192BFBF72CF926
:1053B000DDE904AB04460D4652465B46504659466D
:1053C000FBF722F980A3D3E9002345EC1A4B0446EE
:1053D0000D46FBF719F97EA3D3E90023FAF75EFF28
:1053E00022462B46FBF710F97BA3D3E90023FAF7FB
:1053F00055FF22462B46FBF707F979A3D3E9002393
:10540000FAF74CFF22462B46FBF7FEF876A3D3E9CA
:105410000023FAF743FF22462B46FBF7F5F874A367
:10542000D3E90023FAF73AFF22462B4604460D46FD
:1054300010461946FBF7E8F802460B462046294677
:10544000FBF7E2F8424604460D464B4650465946A5
:10545000CDE904ABFAF722FF53EC1A2BFBF7D4F893
:1054600022462B46FAF71AFF424604460D464B46A3
:1054700040464946FBF7C8F845EC194B694B0022FA
:1054800082468B46FAF70AFF53EC192BFAF706FF10
:10549000009C0D4622462B4640464946FBF7B4F891
:1054A000604B80468946002220462946FAF7F4FEE2
:1054B00052465B46FAF7F0FE02460B4651EC190BDA
:1054C000FAF7EAFEDDE90423FBF79EF849EC188BB6
:1054D0002246804689462B4651EC1A0BFBF794F87E
:1054E00002460B4640464946FAF7D8FE82468B46AE
:1054F00052465B4651EC180BFAF7D0FE009C3EA3D7
:10550000D3E9002320460D46FBF77EF853EC182B19
:105510008046894620462946FAF7BEFE02460B46DB
:1055200050465946FAF7B8FE35A3D3E90023FBF7F6
:105530006BF849EC198B34A3D3E9002380468946E4
:1055400020462946FBF760F802460B46404649468E
:10555000FAF7A4FE53EC1C2BFAF7A0FE824607983C
:105560008B46FAF7E7FF5246804689465B4651EC88
:10557000190BFAF793FE53EC1B2BFAF78FFE4246FA
:105580004B46FAF78BFE009C42464B4620460D46A2
:10559000FAF782FE53EC1B2BFAF77EFE53EC192B25
:1055A000FAF77AFE02460B4650465946FAF774FE61
:1055B00082468B4638E000BF00000000000000007B
:1055C000000000000000F03FEF4E454A287ECA3F31
:1055D00065DBC9934A86CD3F01411DA96074D13F67
:1055E0004D268F515555D53FFFAB6FDBB66DDB3F79
:1055F000033333333333E33F000000E009C7EE3FAA
:10560000FD033ADC09C7EE3FF5015B14E02F3EBE17
:105610000000F07F000040438E98030079B60B0035
:105620000000F03F00000840039B069A013B134333
:1056300040F078819FEDC47BB0EE479AF0EE679A18
:105640000023CDE900670093DDE90089304642463A
:1056500039464B46FAF720FE22462B46FAF7D4FF8E
:1056600032463B4606460F4650465946FAF7CCFFAF
:1056700002460B4630463946FAF710FE424682464D
:105680008B464B4620462946FAF7BEFF06460F4694
:105690003B46504659463246FAF700FEC44B994203
:1056A00004460D46884640F3178101F13F4303F558
:1056B000E003034340F02A82A5A3D3E90023504628
:1056C0005946FAF7EBFD324641EC180B3B462046B3
:1056D0002946FAF7E1FD02460B4651EC180BFBF7A1
:1056E00023FA002840F01282C8F30A534FF48012C4
:1056F000A3F2FE3342FA03F34344AE49C3F30A5222
:10570000A2F2FF3241FA02FCC3F3130523EA0C01B3
:10571000C2F1140445F48015B8F1000F0B4645FAA8
:1057200004F103914FF00000B8BF49420246B8BFF0
:10573000039130463946FAF7AFFD06460F463B4621
:10574000504659463246FAF7A9FD039B1B050093C4
:105750000D46002480A3D3E9002320462946FAF70A
:1057600053FF3246804689463B4620462946FAF793
:1057700093FD02460B4650465946FAF78DFD78A335
:10578000D3E90023FAF740FF77A3D3E900230646C5
:105790000F4620462946FAF737FF02460B463046A9
:1057A0003946FAF77BFD06460F4632463B464046F1
:1057B0004946FAF773FD42464B4604460D46FAF752
:1057C0006BFD02460B4630463946FAF765FD224628
:1057D00082468B462B4620462946FAF715FF64A3DE
:1057E000D3E9002306460F46FAF70EFF62A3D3E97A
:1057F0000023FAF751FD32463B46FAF705FF60A356
:10580000D3E90023FAF74AFD32463B46FAF7FCFE9D
:105810005DA3D3E90023FAF73FFD32463B46FAF792
:10582000F3FE5BA3D3E90023FAF738FD32463B468B
:10583000FAF7EAFE02460B4620462946FAF72CFD07
:1058400006460F4632463B4620462946FAF7DCFE1E
:105850000022804689464FF0804330463946FAF7A9
:105860001BFD02460B4640464946FAF7F7FF5246F3
:1058700006460F465B4620462946FAF7C5FE5246C5
:105880005B46FAF70BFD02460B4630463946FAF7FF
:1058900003FD22462B46FAF7FFFC02460B4600208A
:1058A0004549FAF7F9FC0B4600991944B1F5801FF8
:1058B0000246C0F26981104653EC192BFAF7A4FE98
:1058C000CDE900011EE4BBF1000FFFF695AC9FEDA2
:1058D000327B8DED007B15E4DFF8E4C021F000435E
:1058E000634540F30B81354B0B4403430AD13246E9
:1058F0003B46FAF7D1FC52465B46FBF70BF9002812
:105900003FF4F2AE26A3D3E9002351EC190BFAF7CA
:105910007BFE23A3D3E90023FAF776FECDE900014D
:10592000FFF7F0BB9FED207BB0EE479AF0EE679A51
:1059300086E6BBF1000FCADA07F100430096019337
:10594000FFF7E0BBAFF30080000000000000F0BFF5
:10595000FE822B654715973C00000000432EE63F72
:10596000EF39FAFE422EE63F396CA80C615C20BE8E
:10597000D0A4BE726937663EF16BD2C541BDBB3E55
:105980002CDE25AF6A56113F93BDBE166CC1663F33
:105990003E5555555555C53F00000000000000001C
:1059A00059F3F8C21F6EA501000000000000F03F8F
:1059B000FFFF8F40FFFF0F000000F03F00346F3FFC
:1059C000FFCB90409845FFF67EAF914B98453FF74F
:1059D0000FAC8F4B0022DDE90001FAF75DFC78A3E4
:1059E000D3E9002304460D46FAF70EFE76A3D3E969
:1059F000002382468B4620462946FAF705FE854B52
:105A000080468946002220462946FAF7FDFD0246D7
:105A10000B466FA1D1E90001FAF73EFC22462B4666
:105A2000FAF7F2FD02460B4600207B49FAF734FCF8
:105A300022462B4604460D4610461946FAF7E4FD69
:105A400002460B4620462946FAF7DEFD62A3D3E95B
:105A50000023FAF7D9FD02460B4640464946FAF7BD
:105A60001BFC804689465046594642464B46FAF74B
:105A700015FC002452465B4620460D46FAF70CFC06
:105A800002460B4640464946FAF706FC82468B46DC
:105A9000CAE59FED537BB0EE47BAF0EE67BAB0EEC1
:105AA00047CAF0EE67CA9FED507B4FF0000954ECF7
:105AB000173B1DE40020FFF7F3BB554922462B4658
:105AC0000020FAF7CBFECDE90001FFF71BBB224611
:105AD0002B4620462946FAF797FDCDE90001FFF74E
